{
	"contracts/multiSig_Wallet.sol": {
		"MultiSig": {
			"abi": [
				{
					"inputs": [
						{
							"internalType": "address[]",
							"name": "_owners",
							"type": "address[]"
						},
						{
							"internalType": "uint256",
							"name": "_limit",
							"type": "uint256"
						}
					],
					"stateMutability": "nonpayable",
					"type": "constructor"
				},
				{
					"anonymous": false,
					"inputs": [
						{
							"indexed": false,
							"internalType": "uint256",
							"name": "amount",
							"type": "uint256"
						},
						{
							"indexed": false,
							"internalType": "address",
							"name": "depositeTo",
							"type": "address"
						}
					],
					"name": "balancedAdded",
					"type": "event"
				},
				{
					"inputs": [],
					"name": "Deposit",
					"outputs": [
						{
							"internalType": "uint256",
							"name": "",
							"type": "uint256"
						}
					],
					"stateMutability": "payable",
					"type": "function"
				},
				{
					"inputs": [
						{
							"internalType": "uint256",
							"name": "_id",
							"type": "uint256"
						}
					],
					"name": "approve",
					"outputs": [],
					"stateMutability": "nonpayable",
					"type": "function"
				},
				{
					"inputs": [
						{
							"internalType": "uint256",
							"name": "_amount",
							"type": "uint256"
						},
						{
							"internalType": "address payable",
							"name": "_receiver",
							"type": "address"
						}
					],
					"name": "createTransfer",
					"outputs": [],
					"stateMutability": "nonpayable",
					"type": "function"
				},
				{
					"inputs": [],
					"name": "getBalance",
					"outputs": [
						{
							"internalType": "uint256",
							"name": "",
							"type": "uint256"
						}
					],
					"stateMutability": "view",
					"type": "function"
				},
				{
					"inputs": [],
					"name": "getTransferRedquest",
					"outputs": [
						{
							"components": [
								{
									"internalType": "uint256",
									"name": "amount",
									"type": "uint256"
								},
								{
									"internalType": "address payable",
									"name": "receiver",
									"type": "address"
								},
								{
									"internalType": "uint256",
									"name": "approvals",
									"type": "uint256"
								},
								{
									"internalType": "bool",
									"name": "hasBeensend",
									"type": "bool"
								},
								{
									"internalType": "uint256",
									"name": "id",
									"type": "uint256"
								}
							],
							"internalType": "struct MultiSig.Transfer[]",
							"name": "",
							"type": "tuple[]"
						}
					],
					"stateMutability": "view",
					"type": "function"
				},
				{
					"inputs": [
						{
							"internalType": "uint256",
							"name": "",
							"type": "uint256"
						}
					],
					"name": "owners",
					"outputs": [
						{
							"internalType": "address",
							"name": "",
							"type": "address"
						}
					],
					"stateMutability": "view",
					"type": "function"
				}
			],
			"devdoc": {
				"kind": "dev",
				"methods": {},
				"version": 1
			},
			"evm": {
				"assembly": "    /* \"contracts/multiSig_Wallet.sol\":81:1986  contract MultiSig{\r... */\n  mstore(0x40, 0x80)\n    /* \"contracts/multiSig_Wallet.sol\":154:266  constructor (address[] memory _owners, uint _limit) {\r... */\n  callvalue\n  dup1\n  iszero\n  tag_1\n  jumpi\n  0x00\n  dup1\n  revert\ntag_1:\n  pop\n  mload(0x40)\n  sub(codesize, bytecodeSize)\n  dup1\n  bytecodeSize\n  dup4\n  codecopy\n  dup2\n  dup2\n  add\n  0x40\n  mstore\n  dup2\n  add\n  swap1\n  tag_2\n  swap2\n  swap1\n  tag_3\n  jump\t// in\ntag_2:\n    /* \"contracts/multiSig_Wallet.sol\":226:233  _owners */\n  dup2\n    /* \"contracts/multiSig_Wallet.sol\":217:223  owners */\n  0x00\n    /* \"contracts/multiSig_Wallet.sol\":217:233  owners = _owners */\n  swap1\n  dup1\n  mload\n  swap1\n  0x20\n  add\n  swap1\n  tag_6\n  swap3\n  swap2\n  swap1\n  tag_7\n  jump\t// in\ntag_6:\n  pop\n    /* \"contracts/multiSig_Wallet.sol\":252:258  _limit */\n  dup1\n    /* \"contracts/multiSig_Wallet.sol\":244:249  limit */\n  0x01\n    /* \"contracts/multiSig_Wallet.sol\":244:258  limit = _limit */\n  dup2\n  swap1\n  sstore\n  pop\n    /* \"contracts/multiSig_Wallet.sol\":154:266  constructor (address[] memory _owners, uint _limit) {\r... */\n  pop\n  pop\n    /* \"contracts/multiSig_Wallet.sol\":81:1986  contract MultiSig{\r... */\n  jump(tag_8)\ntag_7:\n  dup3\n  dup1\n  sload\n  dup3\n  dup3\n  sstore\n  swap1\n  0x00\n  mstore\n  keccak256(0x00, 0x20)\n  swap1\n  dup2\n  add\n  swap3\n  dup3\n  iszero\n  tag_9\n  jumpi\n  swap2\n  0x20\n  mul\n  dup3\n  add\ntag_10:\n  dup3\n  dup2\n  gt\n  iszero\n  tag_11\n  jumpi\n  dup3\n  mload\n  dup3\n  exp(0x0100, 0x00)\n  dup2\n  sload\n  dup2\n  0xffffffffffffffffffffffffffffffffffffffff\n  mul\n  not\n  and\n  swap1\n  dup4\n  0xffffffffffffffffffffffffffffffffffffffff\n  and\n  mul\n  or\n  swap1\n  sstore\n  pop\n  swap2\n  0x20\n  add\n  swap2\n  swap1\n  0x01\n  add\n  swap1\n  jump(tag_10)\ntag_11:\ntag_9:\n  pop\n  swap1\n  pop\n  tag_12\n  swap2\n  swap1\n  tag_13\n  jump\t// in\ntag_12:\n  pop\n  swap1\n  jump\t// out\ntag_13:\ntag_14:\n  dup1\n  dup3\n  gt\n  iszero\n  tag_15\n  jumpi\n  0x00\n  dup2\n  0x00\n  swap1\n  sstore\n  pop\n  0x01\n  add\n  jump(tag_14)\ntag_15:\n  pop\n  swap1\n  jump\t// out\n    /* \"#utility.yul\":24:668   */\ntag_17:\n  0x00\n    /* \"#utility.yul\":156:236   */\n  tag_19\n    /* \"#utility.yul\":171:235   */\n  tag_20\n    /* \"#utility.yul\":228:234   */\n  dup5\n    /* \"#utility.yul\":171:235   */\n  tag_21\n  jump\t// in\ntag_20:\n    /* \"#utility.yul\":156:236   */\n  tag_22\n  jump\t// in\ntag_19:\n    /* \"#utility.yul\":147:236   */\n  swap1\n  pop\n    /* \"#utility.yul\":256:261   */\n  dup1\n    /* \"#utility.yul\":284:290   */\n  dup4\n    /* \"#utility.yul\":277:282   */\n  dup3\n    /* \"#utility.yul\":270:291   */\n  mstore\n    /* \"#utility.yul\":310:314   */\n  0x20\n    /* \"#utility.yul\":303:308   */\n  dup3\n    /* \"#utility.yul\":299:315   */\n  add\n    /* \"#utility.yul\":292:315   */\n  swap1\n  pop\n    /* \"#utility.yul\":335:341   */\n  dup3\n    /* \"#utility.yul\":385:388   */\n  dup6\n    /* \"#utility.yul\":377:381   */\n  0x20\n    /* \"#utility.yul\":369:375   */\n  dup7\n    /* \"#utility.yul\":365:382   */\n  mul\n    /* \"#utility.yul\":360:363   */\n  dup3\n    /* \"#utility.yul\":356:383   */\n  add\n    /* \"#utility.yul\":353:389   */\n  gt\n    /* \"#utility.yul\":350:352   */\n  iszero\n  tag_23\n  jumpi\n    /* \"#utility.yul\":402:403   */\n  0x00\n    /* \"#utility.yul\":399:400   */\n  dup1\n    /* \"#utility.yul\":392:404   */\n  revert\n    /* \"#utility.yul\":350:352   */\ntag_23:\n    /* \"#utility.yul\":430:431   */\n  0x00\n    /* \"#utility.yul\":415:662   */\ntag_24:\n    /* \"#utility.yul\":440:446   */\n  dup6\n    /* \"#utility.yul\":437:438   */\n  dup2\n    /* \"#utility.yul\":434:447   */\n  lt\n    /* \"#utility.yul\":415:662   */\n  iszero\n  tag_26\n  jumpi\n    /* \"#utility.yul\":507:510   */\n  dup2\n    /* \"#utility.yul\":535:583   */\n  tag_27\n    /* \"#utility.yul\":579:582   */\n  dup9\n    /* \"#utility.yul\":567:577   */\n  dup3\n    /* \"#utility.yul\":535:583   */\n  tag_28\n  jump\t// in\ntag_27:\n    /* \"#utility.yul\":530:533   */\n  dup5\n    /* \"#utility.yul\":523:584   */\n  mstore\n    /* \"#utility.yul\":613:617   */\n  0x20\n    /* \"#utility.yul\":608:611   */\n  dup5\n    /* \"#utility.yul\":604:618   */\n  add\n    /* \"#utility.yul\":597:618   */\n  swap4\n  pop\n    /* \"#utility.yul\":647:651   */\n  0x20\n    /* \"#utility.yul\":642:645   */\n  dup4\n    /* \"#utility.yul\":638:652   */\n  add\n    /* \"#utility.yul\":631:652   */\n  swap3\n  pop\n    /* \"#utility.yul\":475:662   */\n  pop\n    /* \"#utility.yul\":462:463   */\n  0x01\n    /* \"#utility.yul\":459:460   */\n  dup2\n    /* \"#utility.yul\":455:464   */\n  add\n    /* \"#utility.yul\":450:464   */\n  swap1\n  pop\n    /* \"#utility.yul\":415:662   */\n  jump(tag_24)\ntag_26:\n    /* \"#utility.yul\":419:433   */\n  pop\n    /* \"#utility.yul\":137:668   */\n  pop\n  pop\n  swap4\n  swap3\n  pop\n  pop\n  pop\n  jump\t// out\n    /* \"#utility.yul\":674:817   */\ntag_28:\n  0x00\n    /* \"#utility.yul\":762:768   */\n  dup2\n    /* \"#utility.yul\":756:769   */\n  mload\n    /* \"#utility.yul\":747:769   */\n  swap1\n  pop\n    /* \"#utility.yul\":778:811   */\n  tag_30\n    /* \"#utility.yul\":805:810   */\n  dup2\n    /* \"#utility.yul\":778:811   */\n  tag_31\n  jump\t// in\ntag_30:\n    /* \"#utility.yul\":737:817   */\n  swap3\n  swap2\n  pop\n  pop\n  jump\t// out\n    /* \"#utility.yul\":840:1158   */\ntag_32:\n  0x00\n    /* \"#utility.yul\":971:974   */\n  dup3\n    /* \"#utility.yul\":964:968   */\n  0x1f\n    /* \"#utility.yul\":956:962   */\n  dup4\n    /* \"#utility.yul\":952:969   */\n  add\n    /* \"#utility.yul\":948:975   */\n  slt\n    /* \"#utility.yul\":938:940   */\n  tag_34\n  jumpi\n    /* \"#utility.yul\":989:990   */\n  0x00\n    /* \"#utility.yul\":986:987   */\n  dup1\n    /* \"#utility.yul\":979:991   */\n  revert\n    /* \"#utility.yul\":938:940   */\ntag_34:\n    /* \"#utility.yul\":1022:1028   */\n  dup2\n    /* \"#utility.yul\":1016:1029   */\n  mload\n    /* \"#utility.yul\":1047:1152   */\n  tag_35\n    /* \"#utility.yul\":1148:1151   */\n  dup5\n    /* \"#utility.yul\":1140:1146   */\n  dup3\n    /* \"#utility.yul\":1133:1137   */\n  0x20\n    /* \"#utility.yul\":1125:1131   */\n  dup7\n    /* \"#utility.yul\":1121:1138   */\n  add\n    /* \"#utility.yul\":1047:1152   */\n  tag_17\n  jump\t// in\ntag_35:\n    /* \"#utility.yul\":1038:1152   */\n  swap2\n  pop\n    /* \"#utility.yul\":928:1158   */\n  pop\n  swap3\n  swap2\n  pop\n  pop\n  jump\t// out\n    /* \"#utility.yul\":1164:1307   */\ntag_36:\n  0x00\n    /* \"#utility.yul\":1252:1258   */\n  dup2\n    /* \"#utility.yul\":1246:1259   */\n  mload\n    /* \"#utility.yul\":1237:1259   */\n  swap1\n  pop\n    /* \"#utility.yul\":1268:1301   */\n  tag_38\n    /* \"#utility.yul\":1295:1300   */\n  dup2\n    /* \"#utility.yul\":1268:1301   */\n  tag_39\n  jump\t// in\ntag_38:\n    /* \"#utility.yul\":1227:1307   */\n  swap3\n  swap2\n  pop\n  pop\n  jump\t// out\n    /* \"#utility.yul\":1313:1889   */\ntag_3:\n  0x00\n  dup1\n    /* \"#utility.yul\":1474:1476   */\n  0x40\n    /* \"#utility.yul\":1462:1471   */\n  dup4\n    /* \"#utility.yul\":1453:1460   */\n  dup6\n    /* \"#utility.yul\":1449:1472   */\n  sub\n    /* \"#utility.yul\":1445:1477   */\n  slt\n    /* \"#utility.yul\":1442:1444   */\n  iszero\n  tag_41\n  jumpi\n    /* \"#utility.yul\":1490:1491   */\n  0x00\n    /* \"#utility.yul\":1487:1488   */\n  dup1\n    /* \"#utility.yul\":1480:1492   */\n  revert\n    /* \"#utility.yul\":1442:1444   */\ntag_41:\n    /* \"#utility.yul\":1554:1555   */\n  0x00\n    /* \"#utility.yul\":1543:1552   */\n  dup4\n    /* \"#utility.yul\":1539:1556   */\n  add\n    /* \"#utility.yul\":1533:1557   */\n  mload\n    /* \"#utility.yul\":1584:1602   */\n  0xffffffffffffffff\n    /* \"#utility.yul\":1576:1582   */\n  dup2\n    /* \"#utility.yul\":1573:1603   */\n  gt\n    /* \"#utility.yul\":1570:1572   */\n  iszero\n  tag_42\n  jumpi\n    /* \"#utility.yul\":1616:1617   */\n  0x00\n    /* \"#utility.yul\":1613:1614   */\n  dup1\n    /* \"#utility.yul\":1606:1618   */\n  revert\n    /* \"#utility.yul\":1570:1572   */\ntag_42:\n    /* \"#utility.yul\":1644:1733   */\n  tag_43\n    /* \"#utility.yul\":1725:1732   */\n  dup6\n    /* \"#utility.yul\":1716:1722   */\n  dup3\n    /* \"#utility.yul\":1705:1714   */\n  dup7\n    /* \"#utility.yul\":1701:1723   */\n  add\n    /* \"#utility.yul\":1644:1733   */\n  tag_32\n  jump\t// in\ntag_43:\n    /* \"#utility.yul\":1634:1733   */\n  swap3\n  pop\n    /* \"#utility.yul\":1504:1743   */\n  pop\n    /* \"#utility.yul\":1782:1784   */\n  0x20\n    /* \"#utility.yul\":1808:1872   */\n  tag_44\n    /* \"#utility.yul\":1864:1871   */\n  dup6\n    /* \"#utility.yul\":1855:1861   */\n  dup3\n    /* \"#utility.yul\":1844:1853   */\n  dup7\n    /* \"#utility.yul\":1840:1862   */\n  add\n    /* \"#utility.yul\":1808:1872   */\n  tag_36\n  jump\t// in\ntag_44:\n    /* \"#utility.yul\":1798:1872   */\n  swap2\n  pop\n    /* \"#utility.yul\":1753:1882   */\n  pop\n    /* \"#utility.yul\":1432:1889   */\n  swap3\n  pop\n  swap3\n  swap1\n  pop\n  jump\t// out\n    /* \"#utility.yul\":1895:2173   */\ntag_22:\n  0x00\n    /* \"#utility.yul\":1961:1963   */\n  0x40\n    /* \"#utility.yul\":1955:1964   */\n  mload\n    /* \"#utility.yul\":1945:1964   */\n  swap1\n  pop\n    /* \"#utility.yul\":2003:2007   */\n  dup2\n    /* \"#utility.yul\":1995:2001   */\n  dup2\n    /* \"#utility.yul\":1991:2008   */\n  add\n    /* \"#utility.yul\":2110:2116   */\n  dup2\n    /* \"#utility.yul\":2098:2108   */\n  dup2\n    /* \"#utility.yul\":2095:2117   */\n  lt\n    /* \"#utility.yul\":2074:2092   */\n  0xffffffffffffffff\n    /* \"#utility.yul\":2062:2072   */\n  dup3\n    /* \"#utility.yul\":2059:2093   */\n  gt\n    /* \"#utility.yul\":2056:2118   */\n  or\n    /* \"#utility.yul\":2053:2055   */\n  iszero\n  tag_46\n  jumpi\n    /* \"#utility.yul\":2121:2134   */\n  tag_47\n  tag_48\n  jump\t// in\ntag_47:\n    /* \"#utility.yul\":2053:2055   */\ntag_46:\n    /* \"#utility.yul\":2156:2166   */\n  dup1\n    /* \"#utility.yul\":2152:2154   */\n  0x40\n    /* \"#utility.yul\":2145:2167   */\n  mstore\n    /* \"#utility.yul\":1935:2173   */\n  pop\n  swap2\n  swap1\n  pop\n  jump\t// out\n    /* \"#utility.yul\":2179:2485   */\ntag_21:\n  0x00\n    /* \"#utility.yul\":2346:2364   */\n  0xffffffffffffffff\n    /* \"#utility.yul\":2338:2344   */\n  dup3\n    /* \"#utility.yul\":2335:2365   */\n  gt\n    /* \"#utility.yul\":2332:2334   */\n  iszero\n  tag_50\n  jumpi\n    /* \"#utility.yul\":2368:2381   */\n  tag_51\n  tag_48\n  jump\t// in\ntag_51:\n    /* \"#utility.yul\":2332:2334   */\ntag_50:\n    /* \"#utility.yul\":2413:2417   */\n  0x20\n    /* \"#utility.yul\":2405:2411   */\n  dup3\n    /* \"#utility.yul\":2401:2418   */\n  mul\n    /* \"#utility.yul\":2393:2418   */\n  swap1\n  pop\n    /* \"#utility.yul\":2473:2477   */\n  0x20\n    /* \"#utility.yul\":2467:2471   */\n  dup2\n    /* \"#utility.yul\":2463:2478   */\n  add\n    /* \"#utility.yul\":2455:2478   */\n  swap1\n  pop\n    /* \"#utility.yul\":2261:2485   */\n  swap2\n  swap1\n  pop\n  jump\t// out\n    /* \"#utility.yul\":2491:2587   */\ntag_52:\n  0x00\n    /* \"#utility.yul\":2557:2581   */\n  tag_54\n    /* \"#utility.yul\":2575:2580   */\n  dup3\n    /* \"#utility.yul\":2557:2581   */\n  tag_55\n  jump\t// in\ntag_54:\n    /* \"#utility.yul\":2546:2581   */\n  swap1\n  pop\n    /* \"#utility.yul\":2536:2587   */\n  swap2\n  swap1\n  pop\n  jump\t// out\n    /* \"#utility.yul\":2593:2719   */\ntag_55:\n  0x00\n    /* \"#utility.yul\":2670:2712   */\n  0xffffffffffffffffffffffffffffffffffffffff\n    /* \"#utility.yul\":2663:2668   */\n  dup3\n    /* \"#utility.yul\":2659:2713   */\n  and\n    /* \"#utility.yul\":2648:2713   */\n  swap1\n  pop\n    /* \"#utility.yul\":2638:2719   */\n  swap2\n  swap1\n  pop\n  jump\t// out\n    /* \"#utility.yul\":2725:2802   */\ntag_57:\n  0x00\n    /* \"#utility.yul\":2791:2796   */\n  dup2\n    /* \"#utility.yul\":2780:2796   */\n  swap1\n  pop\n    /* \"#utility.yul\":2770:2802   */\n  swap2\n  swap1\n  pop\n  jump\t// out\n    /* \"#utility.yul\":2808:2856   */\ntag_48:\n    /* \"#utility.yul\":2841:2850   */\n  invalid\n    /* \"#utility.yul\":2862:2984   */\ntag_31:\n    /* \"#utility.yul\":2935:2959   */\n  tag_61\n    /* \"#utility.yul\":2953:2958   */\n  dup2\n    /* \"#utility.yul\":2935:2959   */\n  tag_52\n  jump\t// in\ntag_61:\n    /* \"#utility.yul\":2928:2933   */\n  dup2\n    /* \"#utility.yul\":2925:2960   */\n  eq\n    /* \"#utility.yul\":2915:2917   */\n  tag_62\n  jumpi\n    /* \"#utility.yul\":2974:2975   */\n  0x00\n    /* \"#utility.yul\":2971:2972   */\n  dup1\n    /* \"#utility.yul\":2964:2976   */\n  revert\n    /* \"#utility.yul\":2915:2917   */\ntag_62:\n    /* \"#utility.yul\":2905:2984   */\n  pop\n  jump\t// out\n    /* \"#utility.yul\":2990:3112   */\ntag_39:\n    /* \"#utility.yul\":3063:3087   */\n  tag_64\n    /* \"#utility.yul\":3081:3086   */\n  dup2\n    /* \"#utility.yul\":3063:3087   */\n  tag_57\n  jump\t// in\ntag_64:\n    /* \"#utility.yul\":3056:3061   */\n  dup2\n    /* \"#utility.yul\":3053:3088   */\n  eq\n    /* \"#utility.yul\":3043:3045   */\n  tag_65\n  jumpi\n    /* \"#utility.yul\":3102:3103   */\n  0x00\n    /* \"#utility.yul\":3099:3100   */\n  dup1\n    /* \"#utility.yul\":3092:3104   */\n  revert\n    /* \"#utility.yul\":3043:3045   */\ntag_65:\n    /* \"#utility.yul\":3033:3112   */\n  pop\n  jump\t// out\n    /* \"contracts/multiSig_Wallet.sol\":81:1986  contract MultiSig{\r... */\ntag_8:\n  dataSize(sub_0)\n  dup1\n  dataOffset(sub_0)\n  0x00\n  codecopy\n  0x00\n  return\nstop\n\nsub_0: assembly {\n        /* \"contracts/multiSig_Wallet.sol\":81:1986  contract MultiSig{\r... */\n      mstore(0x40, 0x80)\n      jumpi(tag_1, lt(calldatasize, 0x04))\n      shr(0xe0, calldataload(0x00))\n      dup1\n      0x025e7c27\n      eq\n      tag_2\n      jumpi\n      dup1\n      0x12065fe0\n      eq\n      tag_3\n      jumpi\n      dup1\n      0x4c12fa47\n      eq\n      tag_4\n      jumpi\n      dup1\n      0xb759f954\n      eq\n      tag_5\n      jumpi\n      dup1\n      0xeab631f8\n      eq\n      tag_6\n      jumpi\n      dup1\n      0xed21248c\n      eq\n      tag_7\n      jumpi\n    tag_1:\n      0x00\n      dup1\n      revert\n        /* \"contracts/multiSig_Wallet.sol\":107:130  address[] public owners */\n    tag_2:\n      callvalue\n      dup1\n      iszero\n      tag_8\n      jumpi\n      0x00\n      dup1\n      revert\n    tag_8:\n      pop\n      tag_9\n      0x04\n      dup1\n      calldatasize\n      sub\n      dup2\n      add\n      swap1\n      tag_10\n      swap2\n      swap1\n      tag_11\n      jump\t// in\n    tag_10:\n      tag_12\n      jump\t// in\n    tag_9:\n      mload(0x40)\n      tag_13\n      swap2\n      swap1\n      tag_14\n      jump\t// in\n    tag_13:\n      mload(0x40)\n      dup1\n      swap2\n      sub\n      swap1\n      return\n        /* \"contracts/multiSig_Wallet.sol\":1580:1675  function getBalance() public view returns (uint){\r... */\n    tag_3:\n      callvalue\n      dup1\n      iszero\n      tag_15\n      jumpi\n      0x00\n      dup1\n      revert\n    tag_15:\n      pop\n      tag_16\n      tag_17\n      jump\t// in\n    tag_16:\n      mload(0x40)\n      tag_18\n      swap2\n      swap1\n      tag_19\n      jump\t// in\n    tag_18:\n      mload(0x40)\n      dup1\n      swap2\n      sub\n      swap1\n      return\n        /* \"contracts/multiSig_Wallet.sol\":725:910  function createTransfer(uint _amount, address payable _receiver) public onlyOnwers{\r... */\n    tag_4:\n      callvalue\n      dup1\n      iszero\n      tag_20\n      jumpi\n      0x00\n      dup1\n      revert\n    tag_20:\n      pop\n      tag_21\n      0x04\n      dup1\n      calldatasize\n      sub\n      dup2\n      add\n      swap1\n      tag_22\n      swap2\n      swap1\n      tag_23\n      jump\t// in\n    tag_22:\n      tag_24\n      jump\t// in\n    tag_21:\n      stop\n        /* \"contracts/multiSig_Wallet.sol\":980:1454  function approve(uint _id) public onlyOnwers{\r... */\n    tag_5:\n      callvalue\n      dup1\n      iszero\n      tag_25\n      jumpi\n      0x00\n      dup1\n      revert\n    tag_25:\n      pop\n      tag_26\n      0x04\n      dup1\n      calldatasize\n      sub\n      dup2\n      add\n      swap1\n      tag_27\n      swap2\n      swap1\n      tag_11\n      jump\t// in\n    tag_27:\n      tag_28\n      jump\t// in\n    tag_26:\n      stop\n        /* \"contracts/multiSig_Wallet.sol\":1460:1572  function getTransferRedquest() public view returns (Transfer[] memory) {\r... */\n    tag_6:\n      callvalue\n      dup1\n      iszero\n      tag_29\n      jumpi\n      0x00\n      dup1\n      revert\n    tag_29:\n      pop\n      tag_30\n      tag_31\n      jump\t// in\n    tag_30:\n      mload(0x40)\n      tag_32\n      swap2\n      swap1\n      tag_33\n      jump\t// in\n    tag_32:\n      mload(0x40)\n      dup1\n      swap2\n      sub\n      swap1\n      return\n        /* \"contracts/multiSig_Wallet.sol\":1787:1975  function Deposit() payable public returns (uint){\r... */\n    tag_7:\n      tag_34\n      tag_35\n      jump\t// in\n    tag_34:\n      mload(0x40)\n      tag_36\n      swap2\n      swap1\n      tag_19\n      jump\t// in\n    tag_36:\n      mload(0x40)\n      dup1\n      swap2\n      sub\n      swap1\n      return\n        /* \"contracts/multiSig_Wallet.sol\":107:130  address[] public owners */\n    tag_12:\n      0x00\n      dup2\n      dup2\n      sload\n      dup2\n      lt\n      tag_37\n      jumpi\n      0x00\n      dup1\n      revert\n    tag_37:\n      swap1\n      0x00\n      mstore\n      keccak256(0x00, 0x20)\n      add\n      0x00\n      swap2\n      pop\n      sload\n      swap1\n      0x0100\n      exp\n      swap1\n      div\n      0xffffffffffffffffffffffffffffffffffffffff\n      and\n      dup2\n      jump\t// out\n        /* \"contracts/multiSig_Wallet.sol\":1580:1675  function getBalance() public view returns (uint){\r... */\n    tag_17:\n        /* \"contracts/multiSig_Wallet.sol\":1623:1627  uint */\n      0x00\n        /* \"contracts/multiSig_Wallet.sol\":1646:1667  address(this).balance */\n      selfbalance\n        /* \"contracts/multiSig_Wallet.sol\":1639:1667  return address(this).balance */\n      swap1\n      pop\n        /* \"contracts/multiSig_Wallet.sol\":1580:1675  function getBalance() public view returns (uint){\r... */\n      swap1\n      jump\t// out\n        /* \"contracts/multiSig_Wallet.sol\":725:910  function createTransfer(uint _amount, address payable _receiver) public onlyOnwers{\r... */\n    tag_24:\n        /* \"contracts/multiSig_Wallet.sol\":307:317  bool owner */\n      0x00\n        /* \"contracts/multiSig_Wallet.sol\":340:346  uint i */\n      dup1\n        /* \"contracts/multiSig_Wallet.sol\":336:472  for(uint i=0; i<=owners.length; i++){\r... */\n    tag_41:\n        /* \"contracts/multiSig_Wallet.sol\":353:359  owners */\n      0x00\n        /* \"contracts/multiSig_Wallet.sol\":353:366  owners.length */\n      dup1\n      sload\n      swap1\n      pop\n        /* \"contracts/multiSig_Wallet.sol\":350:351  i */\n      dup2\n        /* \"contracts/multiSig_Wallet.sol\":350:366  i<=owners.length */\n      gt\n        /* \"contracts/multiSig_Wallet.sol\":336:472  for(uint i=0; i<=owners.length; i++){\r... */\n      tag_42\n      jumpi\n        /* \"contracts/multiSig_Wallet.sol\":403:413  msg.sender */\n      caller\n        /* \"contracts/multiSig_Wallet.sol\":390:413  owners[i] == msg.sender */\n      0xffffffffffffffffffffffffffffffffffffffff\n      and\n        /* \"contracts/multiSig_Wallet.sol\":390:396  owners */\n      0x00\n        /* \"contracts/multiSig_Wallet.sol\":397:398  i */\n      dup3\n        /* \"contracts/multiSig_Wallet.sol\":390:399  owners[i] */\n      dup2\n      sload\n      dup2\n      lt\n      tag_44\n      jumpi\n      invalid\n    tag_44:\n      swap1\n      0x00\n      mstore\n      keccak256(0x00, 0x20)\n      add\n      0x00\n      swap1\n      sload\n      swap1\n      0x0100\n      exp\n      swap1\n      div\n      0xffffffffffffffffffffffffffffffffffffffff\n      and\n        /* \"contracts/multiSig_Wallet.sol\":390:413  owners[i] == msg.sender */\n      0xffffffffffffffffffffffffffffffffffffffff\n      and\n      eq\n        /* \"contracts/multiSig_Wallet.sol\":387:461  if(owners[i] == msg.sender){\r... */\n      iszero\n      tag_46\n      jumpi\n        /* \"contracts/multiSig_Wallet.sol\":441:445  true */\n      0x01\n        /* \"contracts/multiSig_Wallet.sol\":433:445  owner = true */\n      swap2\n      pop\n        /* \"contracts/multiSig_Wallet.sol\":387:461  if(owners[i] == msg.sender){\r... */\n    tag_46:\n        /* \"contracts/multiSig_Wallet.sol\":368:371  i++ */\n      dup1\n      dup1\n      0x01\n      add\n      swap2\n      pop\n      pop\n        /* \"contracts/multiSig_Wallet.sol\":336:472  for(uint i=0; i<=owners.length; i++){\r... */\n      jump(tag_41)\n    tag_42:\n      pop\n        /* \"contracts/multiSig_Wallet.sol\":499:503  true */\n      0x01\n        /* \"contracts/multiSig_Wallet.sol\":490:503  owner == true */\n      iszero\n      iszero\n        /* \"contracts/multiSig_Wallet.sol\":490:495  owner */\n      dup2\n        /* \"contracts/multiSig_Wallet.sol\":490:503  owner == true */\n      iszero\n      iszero\n      eq\n        /* \"contracts/multiSig_Wallet.sol\":482:504  require(owner == true) */\n      tag_47\n      jumpi\n      0x00\n      dup1\n      revert\n    tag_47:\n        /* \"contracts/multiSig_Wallet.sol\":818:833  transferRequest */\n      0x02\n        /* \"contracts/multiSig_Wallet.sol\":839:901  Transfer(_amount, _receiver, 0, false, transferRequest.length) */\n      mload(0x40)\n      dup1\n      0xa0\n      add\n      0x40\n      mstore\n      dup1\n        /* \"contracts/multiSig_Wallet.sol\":848:855  _amount */\n      dup6\n        /* \"contracts/multiSig_Wallet.sol\":839:901  Transfer(_amount, _receiver, 0, false, transferRequest.length) */\n      dup2\n      mstore\n      0x20\n      add\n        /* \"contracts/multiSig_Wallet.sol\":857:866  _receiver */\n      dup5\n        /* \"contracts/multiSig_Wallet.sol\":839:901  Transfer(_amount, _receiver, 0, false, transferRequest.length) */\n      0xffffffffffffffffffffffffffffffffffffffff\n      and\n      dup2\n      mstore\n      0x20\n      add\n        /* \"contracts/multiSig_Wallet.sol\":868:869  0 */\n      0x00\n        /* \"contracts/multiSig_Wallet.sol\":839:901  Transfer(_amount, _receiver, 0, false, transferRequest.length) */\n      dup2\n      mstore\n      0x20\n      add\n        /* \"contracts/multiSig_Wallet.sol\":871:876  false */\n      0x00\n        /* \"contracts/multiSig_Wallet.sol\":839:901  Transfer(_amount, _receiver, 0, false, transferRequest.length) */\n      iszero\n      iszero\n      dup2\n      mstore\n      0x20\n      add\n        /* \"contracts/multiSig_Wallet.sol\":878:893  transferRequest */\n      0x02\n        /* \"contracts/multiSig_Wallet.sol\":878:900  transferRequest.length */\n      dup1\n      sload\n      swap1\n      pop\n        /* \"contracts/multiSig_Wallet.sol\":839:901  Transfer(_amount, _receiver, 0, false, transferRequest.length) */\n      dup2\n      mstore\n      pop\n        /* \"contracts/multiSig_Wallet.sol\":818:902  transferRequest.push(Transfer(_amount, _receiver, 0, false, transferRequest.length)) */\n      swap1\n      dup1\n      0x01\n      dup2\n      sload\n      add\n      dup1\n      dup3\n      sstore\n      dup1\n      swap2\n      pop\n      pop\n      0x01\n      swap1\n      sub\n      swap1\n      0x00\n      mstore\n      keccak256(0x00, 0x20)\n      swap1\n      0x05\n      mul\n      add\n      0x00\n      swap1\n      swap2\n      swap1\n      swap2\n      swap1\n      swap2\n      pop\n      0x00\n      dup3\n      add\n      mload\n      dup2\n      0x00\n      add\n      sstore\n      0x20\n      dup3\n      add\n      mload\n      dup2\n      0x01\n      add\n      exp(0x0100, 0x00)\n      dup2\n      sload\n      dup2\n      0xffffffffffffffffffffffffffffffffffffffff\n      mul\n      not\n      and\n      swap1\n      dup4\n      0xffffffffffffffffffffffffffffffffffffffff\n      and\n      mul\n      or\n      swap1\n      sstore\n      pop\n      0x40\n      dup3\n      add\n      mload\n      dup2\n      0x02\n      add\n      sstore\n      0x60\n      dup3\n      add\n      mload\n      dup2\n      0x03\n      add\n      exp(0x0100, 0x00)\n      dup2\n      sload\n      dup2\n      0xff\n      mul\n      not\n      and\n      swap1\n      dup4\n      iszero\n      iszero\n      mul\n      or\n      swap1\n      sstore\n      pop\n      0x80\n      dup3\n      add\n      mload\n      dup2\n      0x04\n      add\n      sstore\n      pop\n      pop\n        /* \"contracts/multiSig_Wallet.sol\":725:910  function createTransfer(uint _amount, address payable _receiver) public onlyOnwers{\r... */\n      pop\n      pop\n      pop\n      jump\t// out\n        /* \"contracts/multiSig_Wallet.sol\":980:1454  function approve(uint _id) public onlyOnwers{\r... */\n    tag_28:\n        /* \"contracts/multiSig_Wallet.sol\":307:317  bool owner */\n      0x00\n        /* \"contracts/multiSig_Wallet.sol\":340:346  uint i */\n      dup1\n        /* \"contracts/multiSig_Wallet.sol\":336:472  for(uint i=0; i<=owners.length; i++){\r... */\n    tag_51:\n        /* \"contracts/multiSig_Wallet.sol\":353:359  owners */\n      0x00\n        /* \"contracts/multiSig_Wallet.sol\":353:366  owners.length */\n      dup1\n      sload\n      swap1\n      pop\n        /* \"contracts/multiSig_Wallet.sol\":350:351  i */\n      dup2\n        /* \"contracts/multiSig_Wallet.sol\":350:366  i<=owners.length */\n      gt\n        /* \"contracts/multiSig_Wallet.sol\":336:472  for(uint i=0; i<=owners.length; i++){\r... */\n      tag_52\n      jumpi\n        /* \"contracts/multiSig_Wallet.sol\":403:413  msg.sender */\n      caller\n        /* \"contracts/multiSig_Wallet.sol\":390:413  owners[i] == msg.sender */\n      0xffffffffffffffffffffffffffffffffffffffff\n      and\n        /* \"contracts/multiSig_Wallet.sol\":390:396  owners */\n      0x00\n        /* \"contracts/multiSig_Wallet.sol\":397:398  i */\n      dup3\n        /* \"contracts/multiSig_Wallet.sol\":390:399  owners[i] */\n      dup2\n      sload\n      dup2\n      lt\n      tag_54\n      jumpi\n      invalid\n    tag_54:\n      swap1\n      0x00\n      mstore\n      keccak256(0x00, 0x20)\n      add\n      0x00\n      swap1\n      sload\n      swap1\n      0x0100\n      exp\n      swap1\n      div\n      0xffffffffffffffffffffffffffffffffffffffff\n      and\n        /* \"contracts/multiSig_Wallet.sol\":390:413  owners[i] == msg.sender */\n      0xffffffffffffffffffffffffffffffffffffffff\n      and\n      eq\n        /* \"contracts/multiSig_Wallet.sol\":387:461  if(owners[i] == msg.sender){\r... */\n      iszero\n      tag_56\n      jumpi\n        /* \"contracts/multiSig_Wallet.sol\":441:445  true */\n      0x01\n        /* \"contracts/multiSig_Wallet.sol\":433:445  owner = true */\n      swap2\n      pop\n        /* \"contracts/multiSig_Wallet.sol\":387:461  if(owners[i] == msg.sender){\r... */\n    tag_56:\n        /* \"contracts/multiSig_Wallet.sol\":368:371  i++ */\n      dup1\n      dup1\n      0x01\n      add\n      swap2\n      pop\n      pop\n        /* \"contracts/multiSig_Wallet.sol\":336:472  for(uint i=0; i<=owners.length; i++){\r... */\n      jump(tag_51)\n    tag_52:\n      pop\n        /* \"contracts/multiSig_Wallet.sol\":499:503  true */\n      0x01\n        /* \"contracts/multiSig_Wallet.sol\":490:503  owner == true */\n      iszero\n      iszero\n        /* \"contracts/multiSig_Wallet.sol\":490:495  owner */\n      dup2\n        /* \"contracts/multiSig_Wallet.sol\":490:503  owner == true */\n      iszero\n      iszero\n      eq\n        /* \"contracts/multiSig_Wallet.sol\":482:504  require(owner == true) */\n      tag_57\n      jumpi\n      0x00\n      dup1\n      revert\n    tag_57:\n        /* \"contracts/multiSig_Wallet.sol\":1079:1084  false */\n      0x00\n        /* \"contracts/multiSig_Wallet.sol\":1043:1084  transferRequest[_id].hasBeensend == false */\n      iszero\n      iszero\n        /* \"contracts/multiSig_Wallet.sol\":1043:1058  transferRequest */\n      0x02\n        /* \"contracts/multiSig_Wallet.sol\":1059:1062  _id */\n      dup4\n        /* \"contracts/multiSig_Wallet.sol\":1043:1063  transferRequest[_id] */\n      dup2\n      sload\n      dup2\n      lt\n      tag_59\n      jumpi\n      invalid\n    tag_59:\n      swap1\n      0x00\n      mstore\n      keccak256(0x00, 0x20)\n      swap1\n      0x05\n      mul\n      add\n        /* \"contracts/multiSig_Wallet.sol\":1043:1075  transferRequest[_id].hasBeensend */\n      0x03\n      add\n      0x00\n      swap1\n      sload\n      swap1\n      0x0100\n      exp\n      swap1\n      div\n      0xff\n      and\n        /* \"contracts/multiSig_Wallet.sol\":1043:1084  transferRequest[_id].hasBeensend == false */\n      iszero\n      iszero\n      eq\n        /* \"contracts/multiSig_Wallet.sol\":1035:1085  require(transferRequest[_id].hasBeensend == false) */\n      tag_61\n      jumpi\n      0x00\n      dup1\n      revert\n    tag_61:\n        /* \"contracts/multiSig_Wallet.sol\":1134:1139  false */\n      0x00\n        /* \"contracts/multiSig_Wallet.sol\":1104:1139  approvals[msg.sender][_id] == false */\n      iszero\n      iszero\n        /* \"contracts/multiSig_Wallet.sol\":1104:1113  approvals */\n      0x03\n        /* \"contracts/multiSig_Wallet.sol\":1104:1125  approvals[msg.sender] */\n      0x00\n        /* \"contracts/multiSig_Wallet.sol\":1114:1124  msg.sender */\n      caller\n        /* \"contracts/multiSig_Wallet.sol\":1104:1125  approvals[msg.sender] */\n      0xffffffffffffffffffffffffffffffffffffffff\n      and\n      0xffffffffffffffffffffffffffffffffffffffff\n      and\n      dup2\n      mstore\n      0x20\n      add\n      swap1\n      dup2\n      mstore\n      0x20\n      add\n      0x00\n      keccak256\n        /* \"contracts/multiSig_Wallet.sol\":1104:1130  approvals[msg.sender][_id] */\n      0x00\n        /* \"contracts/multiSig_Wallet.sol\":1126:1129  _id */\n      dup5\n        /* \"contracts/multiSig_Wallet.sol\":1104:1130  approvals[msg.sender][_id] */\n      dup2\n      mstore\n      0x20\n      add\n      swap1\n      dup2\n      mstore\n      0x20\n      add\n      0x00\n      keccak256\n      0x00\n      swap1\n      sload\n      swap1\n      0x0100\n      exp\n      swap1\n      div\n      0xff\n      and\n        /* \"contracts/multiSig_Wallet.sol\":1104:1139  approvals[msg.sender][_id] == false */\n      iszero\n      iszero\n      eq\n        /* \"contracts/multiSig_Wallet.sol\":1096:1162  require(approvals[msg.sender][_id] == false, \"You already voted.\") */\n      tag_62\n      jumpi\n      mload(0x40)\n      0x08c379a000000000000000000000000000000000000000000000000000000000\n      dup2\n      mstore\n      0x04\n      add\n      tag_63\n      swap1\n      tag_64\n      jump\t// in\n    tag_63:\n      mload(0x40)\n      dup1\n      swap2\n      sub\n      swap1\n      revert\n    tag_62:\n        /* \"contracts/multiSig_Wallet.sol\":1205:1209  true */\n      0x01\n        /* \"contracts/multiSig_Wallet.sol\":1175:1209  approvals[msg.sender][_id] == true */\n      iszero\n      iszero\n        /* \"contracts/multiSig_Wallet.sol\":1175:1184  approvals */\n      0x03\n        /* \"contracts/multiSig_Wallet.sol\":1175:1196  approvals[msg.sender] */\n      0x00\n        /* \"contracts/multiSig_Wallet.sol\":1185:1195  msg.sender */\n      caller\n        /* \"contracts/multiSig_Wallet.sol\":1175:1196  approvals[msg.sender] */\n      0xffffffffffffffffffffffffffffffffffffffff\n      and\n      0xffffffffffffffffffffffffffffffffffffffff\n      and\n      dup2\n      mstore\n      0x20\n      add\n      swap1\n      dup2\n      mstore\n      0x20\n      add\n      0x00\n      keccak256\n        /* \"contracts/multiSig_Wallet.sol\":1175:1201  approvals[msg.sender][_id] */\n      0x00\n        /* \"contracts/multiSig_Wallet.sol\":1197:1200  _id */\n      dup5\n        /* \"contracts/multiSig_Wallet.sol\":1175:1201  approvals[msg.sender][_id] */\n      dup2\n      mstore\n      0x20\n      add\n      swap1\n      dup2\n      mstore\n      0x20\n      add\n      0x00\n      keccak256\n      0x00\n      swap1\n      sload\n      swap1\n      0x0100\n      exp\n      swap1\n      pop\n      pop\n        /* \"contracts/multiSig_Wallet.sol\":1175:1209  approvals[msg.sender][_id] == true */\n      pop\n        /* \"contracts/multiSig_Wallet.sol\":1220:1235  transferRequest */\n      0x02\n        /* \"contracts/multiSig_Wallet.sol\":1236:1239  _id */\n      dup3\n        /* \"contracts/multiSig_Wallet.sol\":1220:1240  transferRequest[_id] */\n      dup2\n      sload\n      dup2\n      lt\n      tag_65\n      jumpi\n      invalid\n    tag_65:\n      swap1\n      0x00\n      mstore\n      keccak256(0x00, 0x20)\n      swap1\n      0x05\n      mul\n      add\n        /* \"contracts/multiSig_Wallet.sol\":1220:1250  transferRequest[_id].approvals */\n      0x02\n      add\n      0x00\n        /* \"contracts/multiSig_Wallet.sol\":1220:1252  transferRequest[_id].approvals++ */\n      dup2\n      sload\n      dup1\n      swap3\n      swap2\n      swap1\n      0x01\n      add\n      swap2\n      swap1\n      pop\n      sstore\n      pop\n        /* \"contracts/multiSig_Wallet.sol\":1300:1305  limit */\n      sload(0x01)\n        /* \"contracts/multiSig_Wallet.sol\":1266:1281  transferRequest */\n      0x02\n        /* \"contracts/multiSig_Wallet.sol\":1282:1285  _id */\n      dup4\n        /* \"contracts/multiSig_Wallet.sol\":1266:1286  transferRequest[_id] */\n      dup2\n      sload\n      dup2\n      lt\n      tag_67\n      jumpi\n      invalid\n    tag_67:\n      swap1\n      0x00\n      mstore\n      keccak256(0x00, 0x20)\n      swap1\n      0x05\n      mul\n      add\n        /* \"contracts/multiSig_Wallet.sol\":1266:1296  transferRequest[_id].approvals */\n      0x02\n      add\n      sload\n        /* \"contracts/multiSig_Wallet.sol\":1266:1305  transferRequest[_id].approvals >= limit */\n      lt\n        /* \"contracts/multiSig_Wallet.sol\":1263:1447  if(transferRequest[_id].approvals >= limit) {\r... */\n      tag_69\n      jumpi\n        /* \"contracts/multiSig_Wallet.sol\":1353:1357  true */\n      0x01\n        /* \"contracts/multiSig_Wallet.sol\":1318:1333  transferRequest */\n      0x02\n        /* \"contracts/multiSig_Wallet.sol\":1334:1337  _id */\n      dup4\n        /* \"contracts/multiSig_Wallet.sol\":1318:1338  transferRequest[_id] */\n      dup2\n      sload\n      dup2\n      lt\n      tag_70\n      jumpi\n      invalid\n    tag_70:\n      swap1\n      0x00\n      mstore\n      keccak256(0x00, 0x20)\n      swap1\n      0x05\n      mul\n      add\n        /* \"contracts/multiSig_Wallet.sol\":1318:1350  transferRequest[_id].hasBeensend */\n      0x03\n      add\n      0x00\n        /* \"contracts/multiSig_Wallet.sol\":1318:1357  transferRequest[_id].hasBeensend = true */\n      0x0100\n      exp\n      dup2\n      sload\n      dup2\n      0xff\n      mul\n      not\n      and\n      swap1\n      dup4\n      iszero\n      iszero\n      mul\n      or\n      swap1\n      sstore\n      pop\n        /* \"contracts/multiSig_Wallet.sol\":1368:1383  transferRequest */\n      0x02\n        /* \"contracts/multiSig_Wallet.sol\":1384:1387  _id */\n      dup3\n        /* \"contracts/multiSig_Wallet.sol\":1368:1388  transferRequest[_id] */\n      dup2\n      sload\n      dup2\n      lt\n      tag_72\n      jumpi\n      invalid\n    tag_72:\n      swap1\n      0x00\n      mstore\n      keccak256(0x00, 0x20)\n      swap1\n      0x05\n      mul\n      add\n        /* \"contracts/multiSig_Wallet.sol\":1368:1397  transferRequest[_id].receiver */\n      0x01\n      add\n      0x00\n      swap1\n      sload\n      swap1\n      0x0100\n      exp\n      swap1\n      div\n      0xffffffffffffffffffffffffffffffffffffffff\n      and\n        /* \"contracts/multiSig_Wallet.sol\":1368:1406  transferRequest[_id].receiver.transfer */\n      0xffffffffffffffffffffffffffffffffffffffff\n      and\n        /* \"contracts/multiSig_Wallet.sol\":1368:1435  transferRequest[_id].receiver.transfer(transferRequest[_id].amount) */\n      0x08fc\n        /* \"contracts/multiSig_Wallet.sol\":1407:1422  transferRequest */\n      0x02\n        /* \"contracts/multiSig_Wallet.sol\":1423:1426  _id */\n      dup5\n        /* \"contracts/multiSig_Wallet.sol\":1407:1427  transferRequest[_id] */\n      dup2\n      sload\n      dup2\n      lt\n      tag_74\n      jumpi\n      invalid\n    tag_74:\n      swap1\n      0x00\n      mstore\n      keccak256(0x00, 0x20)\n      swap1\n      0x05\n      mul\n      add\n        /* \"contracts/multiSig_Wallet.sol\":1407:1434  transferRequest[_id].amount */\n      0x00\n      add\n      sload\n        /* \"contracts/multiSig_Wallet.sol\":1368:1435  transferRequest[_id].receiver.transfer(transferRequest[_id].amount) */\n      swap1\n      dup2\n      iszero\n      mul\n      swap1\n      mload(0x40)\n      0x00\n      mload(0x40)\n      dup1\n      dup4\n      sub\n      dup2\n      dup6\n      dup9\n      dup9\n      call\n      swap4\n      pop\n      pop\n      pop\n      pop\n      iszero\n      dup1\n      iszero\n      tag_77\n      jumpi\n      returndatasize\n      0x00\n      dup1\n      returndatacopy\n      revert(0x00, returndatasize)\n    tag_77:\n      pop\n        /* \"contracts/multiSig_Wallet.sol\":1263:1447  if(transferRequest[_id].approvals >= limit) {\r... */\n    tag_69:\n        /* \"contracts/multiSig_Wallet.sol\":980:1454  function approve(uint _id) public onlyOnwers{\r... */\n      pop\n      pop\n      jump\t// out\n        /* \"contracts/multiSig_Wallet.sol\":1460:1572  function getTransferRedquest() public view returns (Transfer[] memory) {\r... */\n    tag_31:\n        /* \"contracts/multiSig_Wallet.sol\":1512:1529  Transfer[] memory */\n      0x60\n        /* \"contracts/multiSig_Wallet.sol\":1549:1564  transferRequest */\n      0x02\n        /* \"contracts/multiSig_Wallet.sol\":1542:1564  return transferRequest */\n      dup1\n      sload\n      dup1\n      0x20\n      mul\n      0x20\n      add\n      mload(0x40)\n      swap1\n      dup2\n      add\n      0x40\n      mstore\n      dup1\n      swap3\n      swap2\n      swap1\n      dup2\n      dup2\n      mstore\n      0x20\n      add\n      0x00\n      swap1\n    tag_79:\n      dup3\n      dup3\n      lt\n      iszero\n      tag_80\n      jumpi\n      dup4\n      dup3\n      swap1\n      0x00\n      mstore\n      keccak256(0x00, 0x20)\n      swap1\n      0x05\n      mul\n      add\n      mload(0x40)\n      dup1\n      0xa0\n      add\n      0x40\n      mstore\n      swap1\n      dup2\n      0x00\n      dup3\n      add\n      sload\n      dup2\n      mstore\n      0x20\n      add\n      0x01\n      dup3\n      add\n      0x00\n      swap1\n      sload\n      swap1\n      0x0100\n      exp\n      swap1\n      div\n      0xffffffffffffffffffffffffffffffffffffffff\n      and\n      0xffffffffffffffffffffffffffffffffffffffff\n      and\n      0xffffffffffffffffffffffffffffffffffffffff\n      and\n      dup2\n      mstore\n      0x20\n      add\n      0x02\n      dup3\n      add\n      sload\n      dup2\n      mstore\n      0x20\n      add\n      0x03\n      dup3\n      add\n      0x00\n      swap1\n      sload\n      swap1\n      0x0100\n      exp\n      swap1\n      div\n      0xff\n      and\n      iszero\n      iszero\n      iszero\n      iszero\n      dup2\n      mstore\n      0x20\n      add\n      0x04\n      dup3\n      add\n      sload\n      dup2\n      mstore\n      pop\n      pop\n      dup2\n      mstore\n      0x20\n      add\n      swap1\n      0x01\n      add\n      swap1\n      jump(tag_79)\n    tag_80:\n      pop\n      pop\n      pop\n      pop\n      swap1\n      pop\n        /* \"contracts/multiSig_Wallet.sol\":1460:1572  function getTransferRedquest() public view returns (Transfer[] memory) {\r... */\n      swap1\n      jump\t// out\n        /* \"contracts/multiSig_Wallet.sol\":1787:1975  function Deposit() payable public returns (uint){\r... */\n    tag_35:\n        /* \"contracts/multiSig_Wallet.sol\":1830:1834  uint */\n      0x00\n        /* \"contracts/multiSig_Wallet.sol\":1869:1878  msg.value */\n      callvalue\n        /* \"contracts/multiSig_Wallet.sol\":1846:1853  balance */\n      0x04\n        /* \"contracts/multiSig_Wallet.sol\":1846:1865  balance[msg.sender] */\n      0x00\n        /* \"contracts/multiSig_Wallet.sol\":1854:1864  msg.sender */\n      caller\n        /* \"contracts/multiSig_Wallet.sol\":1846:1865  balance[msg.sender] */\n      0xffffffffffffffffffffffffffffffffffffffff\n      and\n      0xffffffffffffffffffffffffffffffffffffffff\n      and\n      dup2\n      mstore\n      0x20\n      add\n      swap1\n      dup2\n      mstore\n      0x20\n      add\n      0x00\n      keccak256\n      0x00\n        /* \"contracts/multiSig_Wallet.sol\":1846:1878  balance[msg.sender] += msg.value */\n      dup3\n      dup3\n      sload\n      add\n      swap3\n      pop\n      pop\n      dup2\n      swap1\n      sstore\n      pop\n        /* \"contracts/multiSig_Wallet.sol\":1894:1930  balancedAdded(msg.value, msg.sender) */\n      0xa140956d3b9027a2409b0cfdc01067f3a3ff508999e883e4ffd9e815a47f49c4\n        /* \"contracts/multiSig_Wallet.sol\":1908:1917  msg.value */\n      callvalue\n        /* \"contracts/multiSig_Wallet.sol\":1919:1929  msg.sender */\n      caller\n        /* \"contracts/multiSig_Wallet.sol\":1894:1930  balancedAdded(msg.value, msg.sender) */\n      mload(0x40)\n      tag_83\n      swap3\n      swap2\n      swap1\n      tag_84\n      jump\t// in\n    tag_83:\n      mload(0x40)\n      dup1\n      swap2\n      sub\n      swap1\n      log1\n        /* \"contracts/multiSig_Wallet.sol\":1948:1955  balance */\n      0x04\n        /* \"contracts/multiSig_Wallet.sol\":1948:1967  balance[msg.sender] */\n      0x00\n        /* \"contracts/multiSig_Wallet.sol\":1956:1966  msg.sender */\n      caller\n        /* \"contracts/multiSig_Wallet.sol\":1948:1967  balance[msg.sender] */\n      0xffffffffffffffffffffffffffffffffffffffff\n      and\n      0xffffffffffffffffffffffffffffffffffffffff\n      and\n      dup2\n      mstore\n      0x20\n      add\n      swap1\n      dup2\n      mstore\n      0x20\n      add\n      0x00\n      keccak256\n      sload\n        /* \"contracts/multiSig_Wallet.sol\":1941:1967  return balance[msg.sender] */\n      swap1\n      pop\n        /* \"contracts/multiSig_Wallet.sol\":1787:1975  function Deposit() payable public returns (uint){\r... */\n      swap1\n      jump\t// out\n        /* \"#utility.yul\":7:162   */\n    tag_86:\n      0x00\n        /* \"#utility.yul\":99:105   */\n      dup2\n        /* \"#utility.yul\":86:106   */\n      calldataload\n        /* \"#utility.yul\":77:106   */\n      swap1\n      pop\n        /* \"#utility.yul\":115:156   */\n      tag_88\n        /* \"#utility.yul\":150:155   */\n      dup2\n        /* \"#utility.yul\":115:156   */\n      tag_89\n      jump\t// in\n    tag_88:\n        /* \"#utility.yul\":67:162   */\n      swap3\n      swap2\n      pop\n      pop\n      jump\t// out\n        /* \"#utility.yul\":168:307   */\n    tag_90:\n      0x00\n        /* \"#utility.yul\":252:258   */\n      dup2\n        /* \"#utility.yul\":239:259   */\n      calldataload\n        /* \"#utility.yul\":230:259   */\n      swap1\n      pop\n        /* \"#utility.yul\":268:301   */\n      tag_92\n        /* \"#utility.yul\":295:300   */\n      dup2\n        /* \"#utility.yul\":268:301   */\n      tag_93\n      jump\t// in\n    tag_92:\n        /* \"#utility.yul\":220:307   */\n      swap3\n      swap2\n      pop\n      pop\n      jump\t// out\n        /* \"#utility.yul\":313:575   */\n    tag_11:\n      0x00\n        /* \"#utility.yul\":421:423   */\n      0x20\n        /* \"#utility.yul\":409:418   */\n      dup3\n        /* \"#utility.yul\":400:407   */\n      dup5\n        /* \"#utility.yul\":396:419   */\n      sub\n        /* \"#utility.yul\":392:424   */\n      slt\n        /* \"#utility.yul\":389:391   */\n      iszero\n      tag_95\n      jumpi\n        /* \"#utility.yul\":437:438   */\n      0x00\n        /* \"#utility.yul\":434:435   */\n      dup1\n        /* \"#utility.yul\":427:439   */\n      revert\n        /* \"#utility.yul\":389:391   */\n    tag_95:\n        /* \"#utility.yul\":480:481   */\n      0x00\n        /* \"#utility.yul\":505:558   */\n      tag_96\n        /* \"#utility.yul\":550:557   */\n      dup5\n        /* \"#utility.yul\":541:547   */\n      dup3\n        /* \"#utility.yul\":530:539   */\n      dup6\n        /* \"#utility.yul\":526:548   */\n      add\n        /* \"#utility.yul\":505:558   */\n      tag_90\n      jump\t// in\n    tag_96:\n        /* \"#utility.yul\":495:558   */\n      swap2\n      pop\n        /* \"#utility.yul\":451:568   */\n      pop\n        /* \"#utility.yul\":379:575   */\n      swap3\n      swap2\n      pop\n      pop\n      jump\t// out\n        /* \"#utility.yul\":581:1004   */\n    tag_23:\n      0x00\n      dup1\n        /* \"#utility.yul\":714:716   */\n      0x40\n        /* \"#utility.yul\":702:711   */\n      dup4\n        /* \"#utility.yul\":693:700   */\n      dup6\n        /* \"#utility.yul\":689:712   */\n      sub\n        /* \"#utility.yul\":685:717   */\n      slt\n        /* \"#utility.yul\":682:684   */\n      iszero\n      tag_98\n      jumpi\n        /* \"#utility.yul\":730:731   */\n      0x00\n        /* \"#utility.yul\":727:728   */\n      dup1\n        /* \"#utility.yul\":720:732   */\n      revert\n        /* \"#utility.yul\":682:684   */\n    tag_98:\n        /* \"#utility.yul\":773:774   */\n      0x00\n        /* \"#utility.yul\":798:851   */\n      tag_99\n        /* \"#utility.yul\":843:850   */\n      dup6\n        /* \"#utility.yul\":834:840   */\n      dup3\n        /* \"#utility.yul\":823:832   */\n      dup7\n        /* \"#utility.yul\":819:841   */\n      add\n        /* \"#utility.yul\":798:851   */\n      tag_90\n      jump\t// in\n    tag_99:\n        /* \"#utility.yul\":788:851   */\n      swap3\n      pop\n        /* \"#utility.yul\":744:861   */\n      pop\n        /* \"#utility.yul\":900:902   */\n      0x20\n        /* \"#utility.yul\":926:987   */\n      tag_100\n        /* \"#utility.yul\":979:986   */\n      dup6\n        /* \"#utility.yul\":970:976   */\n      dup3\n        /* \"#utility.yul\":959:968   */\n      dup7\n        /* \"#utility.yul\":955:977   */\n      add\n        /* \"#utility.yul\":926:987   */\n      tag_86\n      jump\t// in\n    tag_100:\n        /* \"#utility.yul\":916:987   */\n      swap2\n      pop\n        /* \"#utility.yul\":871:997   */\n      pop\n        /* \"#utility.yul\":672:1004   */\n      swap3\n      pop\n      swap3\n      swap1\n      pop\n      jump\t// out\n        /* \"#utility.yul\":1010:1285   */\n    tag_101:\n      0x00\n        /* \"#utility.yul\":1148:1242   */\n      tag_103\n        /* \"#utility.yul\":1238:1241   */\n      dup4\n        /* \"#utility.yul\":1230:1236   */\n      dup4\n        /* \"#utility.yul\":1148:1242   */\n      tag_104\n      jump\t// in\n    tag_103:\n        /* \"#utility.yul\":1274:1278   */\n      0xa0\n        /* \"#utility.yul\":1269:1272   */\n      dup4\n        /* \"#utility.yul\":1265:1279   */\n      add\n        /* \"#utility.yul\":1251:1279   */\n      swap1\n      pop\n        /* \"#utility.yul\":1138:1285   */\n      swap3\n      swap2\n      pop\n      pop\n      jump\t// out\n        /* \"#utility.yul\":1291:1438   */\n    tag_105:\n        /* \"#utility.yul\":1386:1431   */\n      tag_107\n        /* \"#utility.yul\":1425:1430   */\n      dup2\n        /* \"#utility.yul\":1386:1431   */\n      tag_108\n      jump\t// in\n    tag_107:\n        /* \"#utility.yul\":1381:1384   */\n      dup3\n        /* \"#utility.yul\":1374:1432   */\n      mstore\n        /* \"#utility.yul\":1364:1438   */\n      pop\n      pop\n      jump\t// out\n        /* \"#utility.yul\":1444:1576   */\n    tag_109:\n        /* \"#utility.yul\":1537:1569   */\n      tag_111\n        /* \"#utility.yul\":1563:1568   */\n      dup2\n        /* \"#utility.yul\":1537:1569   */\n      tag_112\n      jump\t// in\n    tag_111:\n        /* \"#utility.yul\":1532:1535   */\n      dup3\n        /* \"#utility.yul\":1525:1570   */\n      mstore\n        /* \"#utility.yul\":1515:1576   */\n      pop\n      pop\n      jump\t// out\n        /* \"#utility.yul\":1582:1700   */\n    tag_113:\n        /* \"#utility.yul\":1669:1693   */\n      tag_115\n        /* \"#utility.yul\":1687:1692   */\n      dup2\n        /* \"#utility.yul\":1669:1693   */\n      tag_116\n      jump\t// in\n    tag_115:\n        /* \"#utility.yul\":1664:1667   */\n      dup3\n        /* \"#utility.yul\":1657:1694   */\n      mstore\n        /* \"#utility.yul\":1647:1700   */\n      pop\n      pop\n      jump\t// out\n        /* \"#utility.yul\":1770:2694   */\n    tag_117:\n      0x00\n        /* \"#utility.yul\":1966:2044   */\n      tag_119\n        /* \"#utility.yul\":2038:2043   */\n      dup3\n        /* \"#utility.yul\":1966:2044   */\n      tag_120\n      jump\t// in\n    tag_119:\n        /* \"#utility.yul\":2060:2170   */\n      tag_121\n        /* \"#utility.yul\":2163:2169   */\n      dup2\n        /* \"#utility.yul\":2158:2161   */\n      dup6\n        /* \"#utility.yul\":2060:2170   */\n      tag_122\n      jump\t// in\n    tag_121:\n        /* \"#utility.yul\":2053:2170   */\n      swap4\n      pop\n        /* \"#utility.yul\":2194:2274   */\n      tag_123\n        /* \"#utility.yul\":2268:2273   */\n      dup4\n        /* \"#utility.yul\":2194:2274   */\n      tag_124\n      jump\t// in\n    tag_123:\n        /* \"#utility.yul\":2297:2304   */\n      dup1\n        /* \"#utility.yul\":2328:2329   */\n      0x00\n        /* \"#utility.yul\":2313:2669   */\n    tag_125:\n        /* \"#utility.yul\":2338:2344   */\n      dup4\n        /* \"#utility.yul\":2335:2336   */\n      dup2\n        /* \"#utility.yul\":2332:2345   */\n      lt\n        /* \"#utility.yul\":2313:2669   */\n      iszero\n      tag_127\n      jumpi\n        /* \"#utility.yul\":2414:2420   */\n      dup2\n        /* \"#utility.yul\":2408:2421   */\n      mload\n        /* \"#utility.yul\":2441:2552   */\n      tag_128\n        /* \"#utility.yul\":2548:2551   */\n      dup9\n        /* \"#utility.yul\":2533:2546   */\n      dup3\n        /* \"#utility.yul\":2441:2552   */\n      tag_101\n      jump\t// in\n    tag_128:\n        /* \"#utility.yul\":2434:2552   */\n      swap8\n      pop\n        /* \"#utility.yul\":2575:2659   */\n      tag_129\n        /* \"#utility.yul\":2652:2658   */\n      dup4\n        /* \"#utility.yul\":2575:2659   */\n      tag_130\n      jump\t// in\n    tag_129:\n        /* \"#utility.yul\":2565:2659   */\n      swap3\n      pop\n        /* \"#utility.yul\":2373:2669   */\n      pop\n        /* \"#utility.yul\":2360:2361   */\n      0x01\n        /* \"#utility.yul\":2357:2358   */\n      dup2\n        /* \"#utility.yul\":2353:2362   */\n      add\n        /* \"#utility.yul\":2348:2362   */\n      swap1\n      pop\n        /* \"#utility.yul\":2313:2669   */\n      jump(tag_125)\n    tag_127:\n        /* \"#utility.yul\":2317:2331   */\n      pop\n        /* \"#utility.yul\":2685:2688   */\n      dup6\n        /* \"#utility.yul\":2678:2688   */\n      swap4\n      pop\n        /* \"#utility.yul\":1942:2694   */\n      pop\n      pop\n      pop\n      swap3\n      swap2\n      pop\n      pop\n      jump\t// out\n        /* \"#utility.yul\":2700:2799   */\n    tag_131:\n        /* \"#utility.yul\":2771:2792   */\n      tag_133\n        /* \"#utility.yul\":2786:2791   */\n      dup2\n        /* \"#utility.yul\":2771:2792   */\n      tag_134\n      jump\t// in\n    tag_133:\n        /* \"#utility.yul\":2766:2769   */\n      dup3\n        /* \"#utility.yul\":2759:2793   */\n      mstore\n        /* \"#utility.yul\":2749:2799   */\n      pop\n      pop\n      jump\t// out\n        /* \"#utility.yul\":2805:3121   */\n    tag_135:\n      0x00\n        /* \"#utility.yul\":2968:3035   */\n      tag_137\n        /* \"#utility.yul\":3032:3034   */\n      0x12\n        /* \"#utility.yul\":3027:3030   */\n      dup4\n        /* \"#utility.yul\":2968:3035   */\n      tag_138\n      jump\t// in\n    tag_137:\n        /* \"#utility.yul\":2961:3035   */\n      swap2\n      pop\n        /* \"#utility.yul\":3065:3085   */\n      0x596f7520616c726561647920766f7465642e0000000000000000000000000000\n        /* \"#utility.yul\":3061:3062   */\n      0x00\n        /* \"#utility.yul\":3056:3059   */\n      dup4\n        /* \"#utility.yul\":3052:3063   */\n      add\n        /* \"#utility.yul\":3045:3086   */\n      mstore\n        /* \"#utility.yul\":3112:3114   */\n      0x20\n        /* \"#utility.yul\":3107:3110   */\n      dup3\n        /* \"#utility.yul\":3103:3115   */\n      add\n        /* \"#utility.yul\":3096:3115   */\n      swap1\n      pop\n        /* \"#utility.yul\":2951:3121   */\n      swap2\n      swap1\n      pop\n      jump\t// out\n        /* \"#utility.yul\":3187:4230   */\n    tag_104:\n        /* \"#utility.yul\":3322:3326   */\n      0xa0\n        /* \"#utility.yul\":3317:3320   */\n      dup3\n        /* \"#utility.yul\":3313:3327   */\n      add\n        /* \"#utility.yul\":3411:3415   */\n      0x00\n        /* \"#utility.yul\":3404:3409   */\n      dup3\n        /* \"#utility.yul\":3400:3416   */\n      add\n        /* \"#utility.yul\":3394:3417   */\n      mload\n        /* \"#utility.yul\":3430:3493   */\n      tag_140\n        /* \"#utility.yul\":3487:3491   */\n      0x00\n        /* \"#utility.yul\":3482:3485   */\n      dup6\n        /* \"#utility.yul\":3478:3492   */\n      add\n        /* \"#utility.yul\":3464:3476   */\n      dup3\n        /* \"#utility.yul\":3430:3493   */\n      tag_141\n      jump\t// in\n    tag_140:\n        /* \"#utility.yul\":3337:3503   */\n      pop\n        /* \"#utility.yul\":3589:3593   */\n      0x20\n        /* \"#utility.yul\":3582:3587   */\n      dup3\n        /* \"#utility.yul\":3578:3594   */\n      add\n        /* \"#utility.yul\":3572:3595   */\n      mload\n        /* \"#utility.yul\":3608:3687   */\n      tag_142\n        /* \"#utility.yul\":3681:3685   */\n      0x20\n        /* \"#utility.yul\":3676:3679   */\n      dup6\n        /* \"#utility.yul\":3672:3686   */\n      add\n        /* \"#utility.yul\":3658:3670   */\n      dup3\n        /* \"#utility.yul\":3608:3687   */\n      tag_109\n      jump\t// in\n    tag_142:\n        /* \"#utility.yul\":3513:3697   */\n      pop\n        /* \"#utility.yul\":3784:3788   */\n      0x40\n        /* \"#utility.yul\":3777:3782   */\n      dup3\n        /* \"#utility.yul\":3773:3789   */\n      add\n        /* \"#utility.yul\":3767:3790   */\n      mload\n        /* \"#utility.yul\":3803:3866   */\n      tag_143\n        /* \"#utility.yul\":3860:3864   */\n      0x40\n        /* \"#utility.yul\":3855:3858   */\n      dup6\n        /* \"#utility.yul\":3851:3865   */\n      add\n        /* \"#utility.yul\":3837:3849   */\n      dup3\n        /* \"#utility.yul\":3803:3866   */\n      tag_141\n      jump\t// in\n    tag_143:\n        /* \"#utility.yul\":3707:3876   */\n      pop\n        /* \"#utility.yul\":3965:3969   */\n      0x60\n        /* \"#utility.yul\":3958:3963   */\n      dup3\n        /* \"#utility.yul\":3954:3970   */\n      add\n        /* \"#utility.yul\":3948:3971   */\n      mload\n        /* \"#utility.yul\":3984:4041   */\n      tag_144\n        /* \"#utility.yul\":4035:4039   */\n      0x60\n        /* \"#utility.yul\":4030:4033   */\n      dup6\n        /* \"#utility.yul\":4026:4040   */\n      add\n        /* \"#utility.yul\":4012:4024   */\n      dup3\n        /* \"#utility.yul\":3984:4041   */\n      tag_131\n      jump\t// in\n    tag_144:\n        /* \"#utility.yul\":3886:4051   */\n      pop\n        /* \"#utility.yul\":4131:4135   */\n      0x80\n        /* \"#utility.yul\":4124:4129   */\n      dup3\n        /* \"#utility.yul\":4120:4136   */\n      add\n        /* \"#utility.yul\":4114:4137   */\n      mload\n        /* \"#utility.yul\":4150:4213   */\n      tag_145\n        /* \"#utility.yul\":4207:4211   */\n      0x80\n        /* \"#utility.yul\":4202:4205   */\n      dup6\n        /* \"#utility.yul\":4198:4212   */\n      add\n        /* \"#utility.yul\":4184:4196   */\n      dup3\n        /* \"#utility.yul\":4150:4213   */\n      tag_141\n      jump\t// in\n    tag_145:\n        /* \"#utility.yul\":4061:4223   */\n      pop\n        /* \"#utility.yul\":3291:4230   */\n      pop\n      pop\n      pop\n      jump\t// out\n        /* \"#utility.yul\":4236:4344   */\n    tag_141:\n        /* \"#utility.yul\":4313:4337   */\n      tag_147\n        /* \"#utility.yul\":4331:4336   */\n      dup2\n        /* \"#utility.yul\":4313:4337   */\n      tag_148\n      jump\t// in\n    tag_147:\n        /* \"#utility.yul\":4308:4311   */\n      dup3\n        /* \"#utility.yul\":4301:4338   */\n      mstore\n        /* \"#utility.yul\":4291:4344   */\n      pop\n      pop\n      jump\t// out\n        /* \"#utility.yul\":4350:4468   */\n    tag_149:\n        /* \"#utility.yul\":4437:4461   */\n      tag_151\n        /* \"#utility.yul\":4455:4460   */\n      dup2\n        /* \"#utility.yul\":4437:4461   */\n      tag_148\n      jump\t// in\n    tag_151:\n        /* \"#utility.yul\":4432:4435   */\n      dup3\n        /* \"#utility.yul\":4425:4462   */\n      mstore\n        /* \"#utility.yul\":4415:4468   */\n      pop\n      pop\n      jump\t// out\n        /* \"#utility.yul\":4474:4696   */\n    tag_14:\n      0x00\n        /* \"#utility.yul\":4605:4607   */\n      0x20\n        /* \"#utility.yul\":4594:4603   */\n      dup3\n        /* \"#utility.yul\":4590:4608   */\n      add\n        /* \"#utility.yul\":4582:4608   */\n      swap1\n      pop\n        /* \"#utility.yul\":4618:4689   */\n      tag_153\n        /* \"#utility.yul\":4686:4687   */\n      0x00\n        /* \"#utility.yul\":4675:4684   */\n      dup4\n        /* \"#utility.yul\":4671:4688   */\n      add\n        /* \"#utility.yul\":4662:4668   */\n      dup5\n        /* \"#utility.yul\":4618:4689   */\n      tag_113\n      jump\t// in\n    tag_153:\n        /* \"#utility.yul\":4572:4696   */\n      swap3\n      swap2\n      pop\n      pop\n      jump\t// out\n        /* \"#utility.yul\":4702:5171   */\n    tag_33:\n      0x00\n        /* \"#utility.yul\":4931:4933   */\n      0x20\n        /* \"#utility.yul\":4920:4929   */\n      dup3\n        /* \"#utility.yul\":4916:4934   */\n      add\n        /* \"#utility.yul\":4908:4934   */\n      swap1\n      pop\n        /* \"#utility.yul\":4980:4989   */\n      dup2\n        /* \"#utility.yul\":4974:4978   */\n      dup2\n        /* \"#utility.yul\":4970:4990   */\n      sub\n        /* \"#utility.yul\":4966:4967   */\n      0x00\n        /* \"#utility.yul\":4955:4964   */\n      dup4\n        /* \"#utility.yul\":4951:4968   */\n      add\n        /* \"#utility.yul\":4944:4991   */\n      mstore\n        /* \"#utility.yul\":5008:5164   */\n      tag_155\n        /* \"#utility.yul\":5159:5163   */\n      dup2\n        /* \"#utility.yul\":5150:5156   */\n      dup5\n        /* \"#utility.yul\":5008:5164   */\n      tag_117\n      jump\t// in\n    tag_155:\n        /* \"#utility.yul\":5000:5164   */\n      swap1\n      pop\n        /* \"#utility.yul\":4898:5171   */\n      swap3\n      swap2\n      pop\n      pop\n      jump\t// out\n        /* \"#utility.yul\":5177:5596   */\n    tag_64:\n      0x00\n        /* \"#utility.yul\":5381:5383   */\n      0x20\n        /* \"#utility.yul\":5370:5379   */\n      dup3\n        /* \"#utility.yul\":5366:5384   */\n      add\n        /* \"#utility.yul\":5358:5384   */\n      swap1\n      pop\n        /* \"#utility.yul\":5430:5439   */\n      dup2\n        /* \"#utility.yul\":5424:5428   */\n      dup2\n        /* \"#utility.yul\":5420:5440   */\n      sub\n        /* \"#utility.yul\":5416:5417   */\n      0x00\n        /* \"#utility.yul\":5405:5414   */\n      dup4\n        /* \"#utility.yul\":5401:5418   */\n      add\n        /* \"#utility.yul\":5394:5441   */\n      mstore\n        /* \"#utility.yul\":5458:5589   */\n      tag_157\n        /* \"#utility.yul\":5584:5588   */\n      dup2\n        /* \"#utility.yul\":5458:5589   */\n      tag_135\n      jump\t// in\n    tag_157:\n        /* \"#utility.yul\":5450:5589   */\n      swap1\n      pop\n        /* \"#utility.yul\":5348:5596   */\n      swap2\n      swap1\n      pop\n      jump\t// out\n        /* \"#utility.yul\":5602:5824   */\n    tag_19:\n      0x00\n        /* \"#utility.yul\":5733:5735   */\n      0x20\n        /* \"#utility.yul\":5722:5731   */\n      dup3\n        /* \"#utility.yul\":5718:5736   */\n      add\n        /* \"#utility.yul\":5710:5736   */\n      swap1\n      pop\n        /* \"#utility.yul\":5746:5817   */\n      tag_159\n        /* \"#utility.yul\":5814:5815   */\n      0x00\n        /* \"#utility.yul\":5803:5812   */\n      dup4\n        /* \"#utility.yul\":5799:5816   */\n      add\n        /* \"#utility.yul\":5790:5796   */\n      dup5\n        /* \"#utility.yul\":5746:5817   */\n      tag_149\n      jump\t// in\n    tag_159:\n        /* \"#utility.yul\":5700:5824   */\n      swap3\n      swap2\n      pop\n      pop\n      jump\t// out\n        /* \"#utility.yul\":5830:6178   */\n    tag_84:\n      0x00\n        /* \"#utility.yul\":5997:5999   */\n      0x40\n        /* \"#utility.yul\":5986:5995   */\n      dup3\n        /* \"#utility.yul\":5982:6000   */\n      add\n        /* \"#utility.yul\":5974:6000   */\n      swap1\n      pop\n        /* \"#utility.yul\":6010:6081   */\n      tag_161\n        /* \"#utility.yul\":6078:6079   */\n      0x00\n        /* \"#utility.yul\":6067:6076   */\n      dup4\n        /* \"#utility.yul\":6063:6080   */\n      add\n        /* \"#utility.yul\":6054:6060   */\n      dup6\n        /* \"#utility.yul\":6010:6081   */\n      tag_149\n      jump\t// in\n    tag_161:\n        /* \"#utility.yul\":6091:6171   */\n      tag_162\n        /* \"#utility.yul\":6167:6169   */\n      0x20\n        /* \"#utility.yul\":6156:6165   */\n      dup4\n        /* \"#utility.yul\":6152:6170   */\n      add\n        /* \"#utility.yul\":6143:6149   */\n      dup5\n        /* \"#utility.yul\":6091:6171   */\n      tag_105\n      jump\t// in\n    tag_162:\n        /* \"#utility.yul\":5964:6178   */\n      swap4\n      swap3\n      pop\n      pop\n      pop\n      jump\t// out\n        /* \"#utility.yul\":6184:6340   */\n    tag_124:\n      0x00\n        /* \"#utility.yul\":6298:6301   */\n      dup2\n        /* \"#utility.yul\":6290:6301   */\n      swap1\n      pop\n        /* \"#utility.yul\":6328:6332   */\n      0x20\n        /* \"#utility.yul\":6323:6326   */\n      dup3\n        /* \"#utility.yul\":6319:6333   */\n      add\n        /* \"#utility.yul\":6311:6333   */\n      swap1\n      pop\n        /* \"#utility.yul\":6280:6340   */\n      swap2\n      swap1\n      pop\n      jump\t// out\n        /* \"#utility.yul\":6346:6484   */\n    tag_120:\n      0x00\n        /* \"#utility.yul\":6471:6476   */\n      dup2\n        /* \"#utility.yul\":6465:6477   */\n      mload\n        /* \"#utility.yul\":6455:6477   */\n      swap1\n      pop\n        /* \"#utility.yul\":6444:6484   */\n      swap2\n      swap1\n      pop\n      jump\t// out\n        /* \"#utility.yul\":6490:6627   */\n    tag_130:\n      0x00\n        /* \"#utility.yul\":6616:6620   */\n      0x20\n        /* \"#utility.yul\":6611:6614   */\n      dup3\n        /* \"#utility.yul\":6607:6621   */\n      add\n        /* \"#utility.yul\":6599:6621   */\n      swap1\n      pop\n        /* \"#utility.yul\":6589:6627   */\n      swap2\n      swap1\n      pop\n      jump\t// out\n        /* \"#utility.yul\":6633:6841   */\n    tag_122:\n      0x00\n        /* \"#utility.yul\":6790:6796   */\n      dup3\n        /* \"#utility.yul\":6785:6788   */\n      dup3\n        /* \"#utility.yul\":6778:6797   */\n      mstore\n        /* \"#utility.yul\":6830:6834   */\n      0x20\n        /* \"#utility.yul\":6825:6828   */\n      dup3\n        /* \"#utility.yul\":6821:6835   */\n      add\n        /* \"#utility.yul\":6806:6835   */\n      swap1\n      pop\n        /* \"#utility.yul\":6768:6841   */\n      swap3\n      swap2\n      pop\n      pop\n      jump\t// out\n        /* \"#utility.yul\":6847:7016   */\n    tag_138:\n      0x00\n        /* \"#utility.yul\":6965:6971   */\n      dup3\n        /* \"#utility.yul\":6960:6963   */\n      dup3\n        /* \"#utility.yul\":6953:6972   */\n      mstore\n        /* \"#utility.yul\":7005:7009   */\n      0x20\n        /* \"#utility.yul\":7000:7003   */\n      dup3\n        /* \"#utility.yul\":6996:7010   */\n      add\n        /* \"#utility.yul\":6981:7010   */\n      swap1\n      pop\n        /* \"#utility.yul\":6943:7016   */\n      swap3\n      swap2\n      pop\n      pop\n      jump\t// out\n        /* \"#utility.yul\":7022:7118   */\n    tag_116:\n      0x00\n        /* \"#utility.yul\":7088:7112   */\n      tag_169\n        /* \"#utility.yul\":7106:7111   */\n      dup3\n        /* \"#utility.yul\":7088:7112   */\n      tag_170\n      jump\t// in\n    tag_169:\n        /* \"#utility.yul\":7077:7112   */\n      swap1\n      pop\n        /* \"#utility.yul\":7067:7118   */\n      swap2\n      swap1\n      pop\n      jump\t// out\n        /* \"#utility.yul\":7124:7228   */\n    tag_112:\n      0x00\n        /* \"#utility.yul\":7198:7222   */\n      tag_172\n        /* \"#utility.yul\":7216:7221   */\n      dup3\n        /* \"#utility.yul\":7198:7222   */\n      tag_170\n      jump\t// in\n    tag_172:\n        /* \"#utility.yul\":7187:7222   */\n      swap1\n      pop\n        /* \"#utility.yul\":7177:7228   */\n      swap2\n      swap1\n      pop\n      jump\t// out\n        /* \"#utility.yul\":7234:7324   */\n    tag_134:\n      0x00\n        /* \"#utility.yul\":7311:7316   */\n      dup2\n        /* \"#utility.yul\":7304:7317   */\n      iszero\n        /* \"#utility.yul\":7297:7318   */\n      iszero\n        /* \"#utility.yul\":7286:7318   */\n      swap1\n      pop\n        /* \"#utility.yul\":7276:7324   */\n      swap2\n      swap1\n      pop\n      jump\t// out\n        /* \"#utility.yul\":7330:7456   */\n    tag_170:\n      0x00\n        /* \"#utility.yul\":7407:7449   */\n      0xffffffffffffffffffffffffffffffffffffffff\n        /* \"#utility.yul\":7400:7405   */\n      dup3\n        /* \"#utility.yul\":7396:7450   */\n      and\n        /* \"#utility.yul\":7385:7450   */\n      swap1\n      pop\n        /* \"#utility.yul\":7375:7456   */\n      swap2\n      swap1\n      pop\n      jump\t// out\n        /* \"#utility.yul\":7462:7539   */\n    tag_148:\n      0x00\n        /* \"#utility.yul\":7528:7533   */\n      dup2\n        /* \"#utility.yul\":7517:7533   */\n      swap1\n      pop\n        /* \"#utility.yul\":7507:7539   */\n      swap2\n      swap1\n      pop\n      jump\t// out\n        /* \"#utility.yul\":7545:7679   */\n    tag_108:\n      0x00\n        /* \"#utility.yul\":7636:7673   */\n      tag_177\n        /* \"#utility.yul\":7667:7672   */\n      dup3\n        /* \"#utility.yul\":7636:7673   */\n      tag_178\n      jump\t// in\n    tag_177:\n        /* \"#utility.yul\":7623:7673   */\n      swap1\n      pop\n        /* \"#utility.yul\":7613:7679   */\n      swap2\n      swap1\n      pop\n      jump\t// out\n        /* \"#utility.yul\":7685:7811   */\n    tag_178:\n      0x00\n        /* \"#utility.yul\":7768:7805   */\n      tag_180\n        /* \"#utility.yul\":7799:7804   */\n      dup3\n        /* \"#utility.yul\":7768:7805   */\n      tag_181\n      jump\t// in\n    tag_180:\n        /* \"#utility.yul\":7755:7805   */\n      swap1\n      pop\n        /* \"#utility.yul\":7745:7811   */\n      swap2\n      swap1\n      pop\n      jump\t// out\n        /* \"#utility.yul\":7817:7930   */\n    tag_181:\n      0x00\n        /* \"#utility.yul\":7900:7924   */\n      tag_183\n        /* \"#utility.yul\":7918:7923   */\n      dup3\n        /* \"#utility.yul\":7900:7924   */\n      tag_170\n      jump\t// in\n    tag_183:\n        /* \"#utility.yul\":7887:7924   */\n      swap1\n      pop\n        /* \"#utility.yul\":7877:7930   */\n      swap2\n      swap1\n      pop\n      jump\t// out\n        /* \"#utility.yul\":7936:8074   */\n    tag_89:\n        /* \"#utility.yul\":8017:8049   */\n      tag_185\n        /* \"#utility.yul\":8043:8048   */\n      dup2\n        /* \"#utility.yul\":8017:8049   */\n      tag_112\n      jump\t// in\n    tag_185:\n        /* \"#utility.yul\":8010:8015   */\n      dup2\n        /* \"#utility.yul\":8007:8050   */\n      eq\n        /* \"#utility.yul\":7997:7999   */\n      tag_186\n      jumpi\n        /* \"#utility.yul\":8064:8065   */\n      0x00\n        /* \"#utility.yul\":8061:8062   */\n      dup1\n        /* \"#utility.yul\":8054:8066   */\n      revert\n        /* \"#utility.yul\":7997:7999   */\n    tag_186:\n        /* \"#utility.yul\":7987:8074   */\n      pop\n      jump\t// out\n        /* \"#utility.yul\":8080:8202   */\n    tag_93:\n        /* \"#utility.yul\":8153:8177   */\n      tag_188\n        /* \"#utility.yul\":8171:8176   */\n      dup2\n        /* \"#utility.yul\":8153:8177   */\n      tag_148\n      jump\t// in\n    tag_188:\n        /* \"#utility.yul\":8146:8151   */\n      dup2\n        /* \"#utility.yul\":8143:8178   */\n      eq\n        /* \"#utility.yul\":8133:8135   */\n      tag_189\n      jumpi\n        /* \"#utility.yul\":8192:8193   */\n      0x00\n        /* \"#utility.yul\":8189:8190   */\n      dup1\n        /* \"#utility.yul\":8182:8194   */\n      revert\n        /* \"#utility.yul\":8133:8135   */\n    tag_189:\n        /* \"#utility.yul\":8123:8202   */\n      pop\n      jump\t// out\n\n    auxdata: 0xa2646970667358221220be85240e257022526e2bcee315561dbbd9ec6262558adf07f9f3f217c91a60fc64736f6c63430007060033\n}\n",
				"bytecode": {
					"linkReferences": {},
					"object": "60806040523480156200001157600080fd5b5060405162000f1338038062000f138339818101604052810190620000379190620001dd565b81600090805190602001906200004f9291906200005f565b508060018190555050506200030e565b828054828255906000526020600020908101928215620000db579160200282015b82811115620000da5782518260006101000a81548173ffffffffffffffffffffffffffffffffffffffff021916908373ffffffffffffffffffffffffffffffffffffffff1602179055509160200191906001019062000080565b5b509050620000ea9190620000ee565b5090565b5b8082111562000109576000816000905550600101620000ef565b5090565b6000620001246200011e846200026b565b62000237565b905080838252602082019050828560208602820111156200014457600080fd5b60005b858110156200017857816200015d888262000182565b84526020840193506020830192505060018101905062000147565b5050509392505050565b6000815190506200019381620002da565b92915050565b600082601f830112620001ab57600080fd5b8151620001bd8482602086016200010d565b91505092915050565b600081519050620001d781620002f4565b92915050565b60008060408385031215620001f157600080fd5b600083015167ffffffffffffffff8111156200020c57600080fd5b6200021a8582860162000199565b92505060206200022d85828601620001c6565b9150509250929050565b6000604051905081810181811067ffffffffffffffff82111715620002615762000260620002d8565b5b8060405250919050565b600067ffffffffffffffff821115620002895762000288620002d8565b5b602082029050602081019050919050565b6000620002a782620002ae565b9050919050565b600073ffffffffffffffffffffffffffffffffffffffff82169050919050565b6000819050919050565bfe5b620002e5816200029a565b8114620002f157600080fd5b50565b620002ff81620002ce565b81146200030b57600080fd5b50565b610bf5806200031e6000396000f3fe6080604052600436106100555760003560e01c8063025e7c271461005a57806312065fe0146100975780634c12fa47146100c2578063b759f954146100eb578063eab631f814610114578063ed21248c1461013f575b600080fd5b34801561006657600080fd5b50610081600480360381019061007c9190610839565b61015d565b60405161008e9190610a16565b60405180910390f35b3480156100a357600080fd5b506100ac61019c565b6040516100b99190610a73565b60405180910390f35b3480156100ce57600080fd5b506100e960048036038101906100e49190610862565b6101a4565b005b3480156100f757600080fd5b50610112600480360381019061010d9190610839565b610340565b005b34801561012057600080fd5b50610129610654565b6040516101369190610a31565b60405180910390f35b610147610742565b6040516101549190610a73565b60405180910390f35b6000818154811061016d57600080fd5b906000526020600020016000915054906101000a900473ffffffffffffffffffffffffffffffffffffffff1681565b600047905090565b6000805b6000805490508111610231573373ffffffffffffffffffffffffffffffffffffffff16600082815481106101d857fe5b9060005260206000200160009054906101000a900473ffffffffffffffffffffffffffffffffffffffff1673ffffffffffffffffffffffffffffffffffffffff16141561022457600191505b80806001019150506101a8565b50600115158115151461024357600080fd5b60026040518060a001604052808581526020018473ffffffffffffffffffffffffffffffffffffffff1681526020016000815260200160001515815260200160028054905081525090806001815401808255809150506001900390600052602060002090600502016000909190919091506000820151816000015560208201518160010160006101000a81548173ffffffffffffffffffffffffffffffffffffffff021916908373ffffffffffffffffffffffffffffffffffffffff1602179055506040820151816002015560608201518160030160006101000a81548160ff021916908315150217905550608082015181600401555050505050565b6000805b60008054905081116103cd573373ffffffffffffffffffffffffffffffffffffffff166000828154811061037457fe5b9060005260206000200160009054906101000a900473ffffffffffffffffffffffffffffffffffffffff1673ffffffffffffffffffffffffffffffffffffffff1614156103c057600191505b8080600101915050610344565b5060011515811515146103df57600080fd5b60001515600283815481106103f057fe5b906000526020600020906005020160030160009054906101000a900460ff1615151461041b57600080fd5b60001515600360003373ffffffffffffffffffffffffffffffffffffffff1673ffffffffffffffffffffffffffffffffffffffff168152602001908152602001600020600084815260200190815260200160002060009054906101000a900460ff161515146104bf576040517f08c379a00000000000000000000000000000000000000000000000000000000081526004016104b690610a53565b60405180910390fd5b60011515600360003373ffffffffffffffffffffffffffffffffffffffff1673ffffffffffffffffffffffffffffffffffffffff168152602001908152602001600020600084815260200190815260200160002060009054906101000a905050506002828154811061052d57fe5b9060005260206000209060050201600201600081548092919060010191905055506001546002838154811061055e57fe5b906000526020600020906005020160020154106106505760016002838154811061058457fe5b906000526020600020906005020160030160006101000a81548160ff021916908315150217905550600282815481106105b957fe5b906000526020600020906005020160010160009054906101000a900473ffffffffffffffffffffffffffffffffffffffff1673ffffffffffffffffffffffffffffffffffffffff166108fc6002848154811061061157fe5b9060005260206000209060050201600001549081150290604051600060405180830381858888f1935050505015801561064e573d6000803e3d6000fd5b505b5050565b60606002805480602002602001604051908101604052809291908181526020016000905b8282101561073957838290600052602060002090600502016040518060a0016040529081600082015481526020016001820160009054906101000a900473ffffffffffffffffffffffffffffffffffffffff1673ffffffffffffffffffffffffffffffffffffffff1673ffffffffffffffffffffffffffffffffffffffff168152602001600282015481526020016003820160009054906101000a900460ff1615151515815260200160048201548152505081526020019060010190610678565b50505050905090565b600034600460003373ffffffffffffffffffffffffffffffffffffffff1673ffffffffffffffffffffffffffffffffffffffff168152602001908152602001600020600082825401925050819055507fa140956d3b9027a2409b0cfdc01067f3a3ff508999e883e4ffd9e815a47f49c434336040516107c2929190610a8e565b60405180910390a1600460003373ffffffffffffffffffffffffffffffffffffffff1673ffffffffffffffffffffffffffffffffffffffff16815260200190815260200160002054905090565b60008135905061081e81610b91565b92915050565b60008135905061083381610ba8565b92915050565b60006020828403121561084b57600080fd5b600061085984828501610824565b91505092915050565b6000806040838503121561087557600080fd5b600061088385828601610824565b92505060206108948582860161080f565b9150509250929050565b60006108aa8383610990565b60a08301905092915050565b6108bf81610b5b565b82525050565b6108ce81610b13565b82525050565b6108dd81610b01565b82525050565b60006108ee82610ac7565b6108f88185610adf565b935061090383610ab7565b8060005b8381101561093457815161091b888261089e565b975061092683610ad2565b925050600181019050610907565b5085935050505092915050565b61094a81610b25565b82525050565b600061095d601283610af0565b91507f596f7520616c726561647920766f7465642e00000000000000000000000000006000830152602082019050919050565b60a0820160008201516109a660008501826109f8565b5060208201516109b960208501826108c5565b5060408201516109cc60408501826109f8565b5060608201516109df6060850182610941565b5060808201516109f260808501826109f8565b50505050565b610a0181610b51565b82525050565b610a1081610b51565b82525050565b6000602082019050610a2b60008301846108d4565b92915050565b60006020820190508181036000830152610a4b81846108e3565b905092915050565b60006020820190508181036000830152610a6c81610950565b9050919050565b6000602082019050610a886000830184610a07565b92915050565b6000604082019050610aa36000830185610a07565b610ab060208301846108b6565b9392505050565b6000819050602082019050919050565b600081519050919050565b6000602082019050919050565b600082825260208201905092915050565b600082825260208201905092915050565b6000610b0c82610b31565b9050919050565b6000610b1e82610b31565b9050919050565b60008115159050919050565b600073ffffffffffffffffffffffffffffffffffffffff82169050919050565b6000819050919050565b6000610b6682610b6d565b9050919050565b6000610b7882610b7f565b9050919050565b6000610b8a82610b31565b9050919050565b610b9a81610b13565b8114610ba557600080fd5b50565b610bb181610b51565b8114610bbc57600080fd5b5056fea2646970667358221220be85240e257022526e2bcee315561dbbd9ec6262558adf07f9f3f217c91a60fc64736f6c63430007060033",
					"opcodes": "PUSH1 0x80 PUSH1 0x40 MSTORE CALLVALUE DUP1 ISZERO PUSH3 0x11 JUMPI PUSH1 0x0 DUP1 REVERT JUMPDEST POP PUSH1 0x40 MLOAD PUSH3 0xF13 CODESIZE SUB DUP1 PUSH3 0xF13 DUP4 CODECOPY DUP2 DUP2 ADD PUSH1 0x40 MSTORE DUP2 ADD SWAP1 PUSH3 0x37 SWAP2 SWAP1 PUSH3 0x1DD JUMP JUMPDEST DUP2 PUSH1 0x0 SWAP1 DUP1 MLOAD SWAP1 PUSH1 0x20 ADD SWAP1 PUSH3 0x4F SWAP3 SWAP2 SWAP1 PUSH3 0x5F JUMP JUMPDEST POP DUP1 PUSH1 0x1 DUP2 SWAP1 SSTORE POP POP POP PUSH3 0x30E JUMP JUMPDEST DUP3 DUP1 SLOAD DUP3 DUP3 SSTORE SWAP1 PUSH1 0x0 MSTORE PUSH1 0x20 PUSH1 0x0 KECCAK256 SWAP1 DUP2 ADD SWAP3 DUP3 ISZERO PUSH3 0xDB JUMPI SWAP2 PUSH1 0x20 MUL DUP3 ADD JUMPDEST DUP3 DUP2 GT ISZERO PUSH3 0xDA JUMPI DUP3 MLOAD DUP3 PUSH1 0x0 PUSH2 0x100 EXP DUP2 SLOAD DUP2 PUSH20 0xFFFFFFFFFFFFFFFFFFFFFFFFFFFFFFFFFFFFFFFF MUL NOT AND SWAP1 DUP4 PUSH20 0xFFFFFFFFFFFFFFFFFFFFFFFFFFFFFFFFFFFFFFFF AND MUL OR SWAP1 SSTORE POP SWAP2 PUSH1 0x20 ADD SWAP2 SWAP1 PUSH1 0x1 ADD SWAP1 PUSH3 0x80 JUMP JUMPDEST JUMPDEST POP SWAP1 POP PUSH3 0xEA SWAP2 SWAP1 PUSH3 0xEE JUMP JUMPDEST POP SWAP1 JUMP JUMPDEST JUMPDEST DUP1 DUP3 GT ISZERO PUSH3 0x109 JUMPI PUSH1 0x0 DUP2 PUSH1 0x0 SWAP1 SSTORE POP PUSH1 0x1 ADD PUSH3 0xEF JUMP JUMPDEST POP SWAP1 JUMP JUMPDEST PUSH1 0x0 PUSH3 0x124 PUSH3 0x11E DUP5 PUSH3 0x26B JUMP JUMPDEST PUSH3 0x237 JUMP JUMPDEST SWAP1 POP DUP1 DUP4 DUP3 MSTORE PUSH1 0x20 DUP3 ADD SWAP1 POP DUP3 DUP6 PUSH1 0x20 DUP7 MUL DUP3 ADD GT ISZERO PUSH3 0x144 JUMPI PUSH1 0x0 DUP1 REVERT JUMPDEST PUSH1 0x0 JUMPDEST DUP6 DUP2 LT ISZERO PUSH3 0x178 JUMPI DUP2 PUSH3 0x15D DUP9 DUP3 PUSH3 0x182 JUMP JUMPDEST DUP5 MSTORE PUSH1 0x20 DUP5 ADD SWAP4 POP PUSH1 0x20 DUP4 ADD SWAP3 POP POP PUSH1 0x1 DUP2 ADD SWAP1 POP PUSH3 0x147 JUMP JUMPDEST POP POP POP SWAP4 SWAP3 POP POP POP JUMP JUMPDEST PUSH1 0x0 DUP2 MLOAD SWAP1 POP PUSH3 0x193 DUP2 PUSH3 0x2DA JUMP JUMPDEST SWAP3 SWAP2 POP POP JUMP JUMPDEST PUSH1 0x0 DUP3 PUSH1 0x1F DUP4 ADD SLT PUSH3 0x1AB JUMPI PUSH1 0x0 DUP1 REVERT JUMPDEST DUP2 MLOAD PUSH3 0x1BD DUP5 DUP3 PUSH1 0x20 DUP7 ADD PUSH3 0x10D JUMP JUMPDEST SWAP2 POP POP SWAP3 SWAP2 POP POP JUMP JUMPDEST PUSH1 0x0 DUP2 MLOAD SWAP1 POP PUSH3 0x1D7 DUP2 PUSH3 0x2F4 JUMP JUMPDEST SWAP3 SWAP2 POP POP JUMP JUMPDEST PUSH1 0x0 DUP1 PUSH1 0x40 DUP4 DUP6 SUB SLT ISZERO PUSH3 0x1F1 JUMPI PUSH1 0x0 DUP1 REVERT JUMPDEST PUSH1 0x0 DUP4 ADD MLOAD PUSH8 0xFFFFFFFFFFFFFFFF DUP2 GT ISZERO PUSH3 0x20C JUMPI PUSH1 0x0 DUP1 REVERT JUMPDEST PUSH3 0x21A DUP6 DUP3 DUP7 ADD PUSH3 0x199 JUMP JUMPDEST SWAP3 POP POP PUSH1 0x20 PUSH3 0x22D DUP6 DUP3 DUP7 ADD PUSH3 0x1C6 JUMP JUMPDEST SWAP2 POP POP SWAP3 POP SWAP3 SWAP1 POP JUMP JUMPDEST PUSH1 0x0 PUSH1 0x40 MLOAD SWAP1 POP DUP2 DUP2 ADD DUP2 DUP2 LT PUSH8 0xFFFFFFFFFFFFFFFF DUP3 GT OR ISZERO PUSH3 0x261 JUMPI PUSH3 0x260 PUSH3 0x2D8 JUMP JUMPDEST JUMPDEST DUP1 PUSH1 0x40 MSTORE POP SWAP2 SWAP1 POP JUMP JUMPDEST PUSH1 0x0 PUSH8 0xFFFFFFFFFFFFFFFF DUP3 GT ISZERO PUSH3 0x289 JUMPI PUSH3 0x288 PUSH3 0x2D8 JUMP JUMPDEST JUMPDEST PUSH1 0x20 DUP3 MUL SWAP1 POP PUSH1 0x20 DUP2 ADD SWAP1 POP SWAP2 SWAP1 POP JUMP JUMPDEST PUSH1 0x0 PUSH3 0x2A7 DUP3 PUSH3 0x2AE JUMP JUMPDEST SWAP1 POP SWAP2 SWAP1 POP JUMP JUMPDEST PUSH1 0x0 PUSH20 0xFFFFFFFFFFFFFFFFFFFFFFFFFFFFFFFFFFFFFFFF DUP3 AND SWAP1 POP SWAP2 SWAP1 POP JUMP JUMPDEST PUSH1 0x0 DUP2 SWAP1 POP SWAP2 SWAP1 POP JUMP JUMPDEST INVALID JUMPDEST PUSH3 0x2E5 DUP2 PUSH3 0x29A JUMP JUMPDEST DUP2 EQ PUSH3 0x2F1 JUMPI PUSH1 0x0 DUP1 REVERT JUMPDEST POP JUMP JUMPDEST PUSH3 0x2FF DUP2 PUSH3 0x2CE JUMP JUMPDEST DUP2 EQ PUSH3 0x30B JUMPI PUSH1 0x0 DUP1 REVERT JUMPDEST POP JUMP JUMPDEST PUSH2 0xBF5 DUP1 PUSH3 0x31E PUSH1 0x0 CODECOPY PUSH1 0x0 RETURN INVALID PUSH1 0x80 PUSH1 0x40 MSTORE PUSH1 0x4 CALLDATASIZE LT PUSH2 0x55 JUMPI PUSH1 0x0 CALLDATALOAD PUSH1 0xE0 SHR DUP1 PUSH4 0x25E7C27 EQ PUSH2 0x5A JUMPI DUP1 PUSH4 0x12065FE0 EQ PUSH2 0x97 JUMPI DUP1 PUSH4 0x4C12FA47 EQ PUSH2 0xC2 JUMPI DUP1 PUSH4 0xB759F954 EQ PUSH2 0xEB JUMPI DUP1 PUSH4 0xEAB631F8 EQ PUSH2 0x114 JUMPI DUP1 PUSH4 0xED21248C EQ PUSH2 0x13F JUMPI JUMPDEST PUSH1 0x0 DUP1 REVERT JUMPDEST CALLVALUE DUP1 ISZERO PUSH2 0x66 JUMPI PUSH1 0x0 DUP1 REVERT JUMPDEST POP PUSH2 0x81 PUSH1 0x4 DUP1 CALLDATASIZE SUB DUP2 ADD SWAP1 PUSH2 0x7C SWAP2 SWAP1 PUSH2 0x839 JUMP JUMPDEST PUSH2 0x15D JUMP JUMPDEST PUSH1 0x40 MLOAD PUSH2 0x8E SWAP2 SWAP1 PUSH2 0xA16 JUMP JUMPDEST PUSH1 0x40 MLOAD DUP1 SWAP2 SUB SWAP1 RETURN JUMPDEST CALLVALUE DUP1 ISZERO PUSH2 0xA3 JUMPI PUSH1 0x0 DUP1 REVERT JUMPDEST POP PUSH2 0xAC PUSH2 0x19C JUMP JUMPDEST PUSH1 0x40 MLOAD PUSH2 0xB9 SWAP2 SWAP1 PUSH2 0xA73 JUMP JUMPDEST PUSH1 0x40 MLOAD DUP1 SWAP2 SUB SWAP1 RETURN JUMPDEST CALLVALUE DUP1 ISZERO PUSH2 0xCE JUMPI PUSH1 0x0 DUP1 REVERT JUMPDEST POP PUSH2 0xE9 PUSH1 0x4 DUP1 CALLDATASIZE SUB DUP2 ADD SWAP1 PUSH2 0xE4 SWAP2 SWAP1 PUSH2 0x862 JUMP JUMPDEST PUSH2 0x1A4 JUMP JUMPDEST STOP JUMPDEST CALLVALUE DUP1 ISZERO PUSH2 0xF7 JUMPI PUSH1 0x0 DUP1 REVERT JUMPDEST POP PUSH2 0x112 PUSH1 0x4 DUP1 CALLDATASIZE SUB DUP2 ADD SWAP1 PUSH2 0x10D SWAP2 SWAP1 PUSH2 0x839 JUMP JUMPDEST PUSH2 0x340 JUMP JUMPDEST STOP JUMPDEST CALLVALUE DUP1 ISZERO PUSH2 0x120 JUMPI PUSH1 0x0 DUP1 REVERT JUMPDEST POP PUSH2 0x129 PUSH2 0x654 JUMP JUMPDEST PUSH1 0x40 MLOAD PUSH2 0x136 SWAP2 SWAP1 PUSH2 0xA31 JUMP JUMPDEST PUSH1 0x40 MLOAD DUP1 SWAP2 SUB SWAP1 RETURN JUMPDEST PUSH2 0x147 PUSH2 0x742 JUMP JUMPDEST PUSH1 0x40 MLOAD PUSH2 0x154 SWAP2 SWAP1 PUSH2 0xA73 JUMP JUMPDEST PUSH1 0x40 MLOAD DUP1 SWAP2 SUB SWAP1 RETURN JUMPDEST PUSH1 0x0 DUP2 DUP2 SLOAD DUP2 LT PUSH2 0x16D JUMPI PUSH1 0x0 DUP1 REVERT JUMPDEST SWAP1 PUSH1 0x0 MSTORE PUSH1 0x20 PUSH1 0x0 KECCAK256 ADD PUSH1 0x0 SWAP2 POP SLOAD SWAP1 PUSH2 0x100 EXP SWAP1 DIV PUSH20 0xFFFFFFFFFFFFFFFFFFFFFFFFFFFFFFFFFFFFFFFF AND DUP2 JUMP JUMPDEST PUSH1 0x0 SELFBALANCE SWAP1 POP SWAP1 JUMP JUMPDEST PUSH1 0x0 DUP1 JUMPDEST PUSH1 0x0 DUP1 SLOAD SWAP1 POP DUP2 GT PUSH2 0x231 JUMPI CALLER PUSH20 0xFFFFFFFFFFFFFFFFFFFFFFFFFFFFFFFFFFFFFFFF AND PUSH1 0x0 DUP3 DUP2 SLOAD DUP2 LT PUSH2 0x1D8 JUMPI INVALID JUMPDEST SWAP1 PUSH1 0x0 MSTORE PUSH1 0x20 PUSH1 0x0 KECCAK256 ADD PUSH1 0x0 SWAP1 SLOAD SWAP1 PUSH2 0x100 EXP SWAP1 DIV PUSH20 0xFFFFFFFFFFFFFFFFFFFFFFFFFFFFFFFFFFFFFFFF AND PUSH20 0xFFFFFFFFFFFFFFFFFFFFFFFFFFFFFFFFFFFFFFFF AND EQ ISZERO PUSH2 0x224 JUMPI PUSH1 0x1 SWAP2 POP JUMPDEST DUP1 DUP1 PUSH1 0x1 ADD SWAP2 POP POP PUSH2 0x1A8 JUMP JUMPDEST POP PUSH1 0x1 ISZERO ISZERO DUP2 ISZERO ISZERO EQ PUSH2 0x243 JUMPI PUSH1 0x0 DUP1 REVERT JUMPDEST PUSH1 0x2 PUSH1 0x40 MLOAD DUP1 PUSH1 0xA0 ADD PUSH1 0x40 MSTORE DUP1 DUP6 DUP2 MSTORE PUSH1 0x20 ADD DUP5 PUSH20 0xFFFFFFFFFFFFFFFFFFFFFFFFFFFFFFFFFFFFFFFF AND DUP2 MSTORE PUSH1 0x20 ADD PUSH1 0x0 DUP2 MSTORE PUSH1 0x20 ADD PUSH1 0x0 ISZERO ISZERO DUP2 MSTORE PUSH1 0x20 ADD PUSH1 0x2 DUP1 SLOAD SWAP1 POP DUP2 MSTORE POP SWAP1 DUP1 PUSH1 0x1 DUP2 SLOAD ADD DUP1 DUP3 SSTORE DUP1 SWAP2 POP POP PUSH1 0x1 SWAP1 SUB SWAP1 PUSH1 0x0 MSTORE PUSH1 0x20 PUSH1 0x0 KECCAK256 SWAP1 PUSH1 0x5 MUL ADD PUSH1 0x0 SWAP1 SWAP2 SWAP1 SWAP2 SWAP1 SWAP2 POP PUSH1 0x0 DUP3 ADD MLOAD DUP2 PUSH1 0x0 ADD SSTORE PUSH1 0x20 DUP3 ADD MLOAD DUP2 PUSH1 0x1 ADD PUSH1 0x0 PUSH2 0x100 EXP DUP2 SLOAD DUP2 PUSH20 0xFFFFFFFFFFFFFFFFFFFFFFFFFFFFFFFFFFFFFFFF MUL NOT AND SWAP1 DUP4 PUSH20 0xFFFFFFFFFFFFFFFFFFFFFFFFFFFFFFFFFFFFFFFF AND MUL OR SWAP1 SSTORE POP PUSH1 0x40 DUP3 ADD MLOAD DUP2 PUSH1 0x2 ADD SSTORE PUSH1 0x60 DUP3 ADD MLOAD DUP2 PUSH1 0x3 ADD PUSH1 0x0 PUSH2 0x100 EXP DUP2 SLOAD DUP2 PUSH1 0xFF MUL NOT AND SWAP1 DUP4 ISZERO ISZERO MUL OR SWAP1 SSTORE POP PUSH1 0x80 DUP3 ADD MLOAD DUP2 PUSH1 0x4 ADD SSTORE POP POP POP POP POP JUMP JUMPDEST PUSH1 0x0 DUP1 JUMPDEST PUSH1 0x0 DUP1 SLOAD SWAP1 POP DUP2 GT PUSH2 0x3CD JUMPI CALLER PUSH20 0xFFFFFFFFFFFFFFFFFFFFFFFFFFFFFFFFFFFFFFFF AND PUSH1 0x0 DUP3 DUP2 SLOAD DUP2 LT PUSH2 0x374 JUMPI INVALID JUMPDEST SWAP1 PUSH1 0x0 MSTORE PUSH1 0x20 PUSH1 0x0 KECCAK256 ADD PUSH1 0x0 SWAP1 SLOAD SWAP1 PUSH2 0x100 EXP SWAP1 DIV PUSH20 0xFFFFFFFFFFFFFFFFFFFFFFFFFFFFFFFFFFFFFFFF AND PUSH20 0xFFFFFFFFFFFFFFFFFFFFFFFFFFFFFFFFFFFFFFFF AND EQ ISZERO PUSH2 0x3C0 JUMPI PUSH1 0x1 SWAP2 POP JUMPDEST DUP1 DUP1 PUSH1 0x1 ADD SWAP2 POP POP PUSH2 0x344 JUMP JUMPDEST POP PUSH1 0x1 ISZERO ISZERO DUP2 ISZERO ISZERO EQ PUSH2 0x3DF JUMPI PUSH1 0x0 DUP1 REVERT JUMPDEST PUSH1 0x0 ISZERO ISZERO PUSH1 0x2 DUP4 DUP2 SLOAD DUP2 LT PUSH2 0x3F0 JUMPI INVALID JUMPDEST SWAP1 PUSH1 0x0 MSTORE PUSH1 0x20 PUSH1 0x0 KECCAK256 SWAP1 PUSH1 0x5 MUL ADD PUSH1 0x3 ADD PUSH1 0x0 SWAP1 SLOAD SWAP1 PUSH2 0x100 EXP SWAP1 DIV PUSH1 0xFF AND ISZERO ISZERO EQ PUSH2 0x41B JUMPI PUSH1 0x0 DUP1 REVERT JUMPDEST PUSH1 0x0 ISZERO ISZERO PUSH1 0x3 PUSH1 0x0 CALLER PUSH20 0xFFFFFFFFFFFFFFFFFFFFFFFFFFFFFFFFFFFFFFFF AND PUSH20 0xFFFFFFFFFFFFFFFFFFFFFFFFFFFFFFFFFFFFFFFF AND DUP2 MSTORE PUSH1 0x20 ADD SWAP1 DUP2 MSTORE PUSH1 0x20 ADD PUSH1 0x0 KECCAK256 PUSH1 0x0 DUP5 DUP2 MSTORE PUSH1 0x20 ADD SWAP1 DUP2 MSTORE PUSH1 0x20 ADD PUSH1 0x0 KECCAK256 PUSH1 0x0 SWAP1 SLOAD SWAP1 PUSH2 0x100 EXP SWAP1 DIV PUSH1 0xFF AND ISZERO ISZERO EQ PUSH2 0x4BF JUMPI PUSH1 0x40 MLOAD PUSH32 0x8C379A000000000000000000000000000000000000000000000000000000000 DUP2 MSTORE PUSH1 0x4 ADD PUSH2 0x4B6 SWAP1 PUSH2 0xA53 JUMP JUMPDEST PUSH1 0x40 MLOAD DUP1 SWAP2 SUB SWAP1 REVERT JUMPDEST PUSH1 0x1 ISZERO ISZERO PUSH1 0x3 PUSH1 0x0 CALLER PUSH20 0xFFFFFFFFFFFFFFFFFFFFFFFFFFFFFFFFFFFFFFFF AND PUSH20 0xFFFFFFFFFFFFFFFFFFFFFFFFFFFFFFFFFFFFFFFF AND DUP2 MSTORE PUSH1 0x20 ADD SWAP1 DUP2 MSTORE PUSH1 0x20 ADD PUSH1 0x0 KECCAK256 PUSH1 0x0 DUP5 DUP2 MSTORE PUSH1 0x20 ADD SWAP1 DUP2 MSTORE PUSH1 0x20 ADD PUSH1 0x0 KECCAK256 PUSH1 0x0 SWAP1 SLOAD SWAP1 PUSH2 0x100 EXP SWAP1 POP POP POP PUSH1 0x2 DUP3 DUP2 SLOAD DUP2 LT PUSH2 0x52D JUMPI INVALID JUMPDEST SWAP1 PUSH1 0x0 MSTORE PUSH1 0x20 PUSH1 0x0 KECCAK256 SWAP1 PUSH1 0x5 MUL ADD PUSH1 0x2 ADD PUSH1 0x0 DUP2 SLOAD DUP1 SWAP3 SWAP2 SWAP1 PUSH1 0x1 ADD SWAP2 SWAP1 POP SSTORE POP PUSH1 0x1 SLOAD PUSH1 0x2 DUP4 DUP2 SLOAD DUP2 LT PUSH2 0x55E JUMPI INVALID JUMPDEST SWAP1 PUSH1 0x0 MSTORE PUSH1 0x20 PUSH1 0x0 KECCAK256 SWAP1 PUSH1 0x5 MUL ADD PUSH1 0x2 ADD SLOAD LT PUSH2 0x650 JUMPI PUSH1 0x1 PUSH1 0x2 DUP4 DUP2 SLOAD DUP2 LT PUSH2 0x584 JUMPI INVALID JUMPDEST SWAP1 PUSH1 0x0 MSTORE PUSH1 0x20 PUSH1 0x0 KECCAK256 SWAP1 PUSH1 0x5 MUL ADD PUSH1 0x3 ADD PUSH1 0x0 PUSH2 0x100 EXP DUP2 SLOAD DUP2 PUSH1 0xFF MUL NOT AND SWAP1 DUP4 ISZERO ISZERO MUL OR SWAP1 SSTORE POP PUSH1 0x2 DUP3 DUP2 SLOAD DUP2 LT PUSH2 0x5B9 JUMPI INVALID JUMPDEST SWAP1 PUSH1 0x0 MSTORE PUSH1 0x20 PUSH1 0x0 KECCAK256 SWAP1 PUSH1 0x5 MUL ADD PUSH1 0x1 ADD PUSH1 0x0 SWAP1 SLOAD SWAP1 PUSH2 0x100 EXP SWAP1 DIV PUSH20 0xFFFFFFFFFFFFFFFFFFFFFFFFFFFFFFFFFFFFFFFF AND PUSH20 0xFFFFFFFFFFFFFFFFFFFFFFFFFFFFFFFFFFFFFFFF AND PUSH2 0x8FC PUSH1 0x2 DUP5 DUP2 SLOAD DUP2 LT PUSH2 0x611 JUMPI INVALID JUMPDEST SWAP1 PUSH1 0x0 MSTORE PUSH1 0x20 PUSH1 0x0 KECCAK256 SWAP1 PUSH1 0x5 MUL ADD PUSH1 0x0 ADD SLOAD SWAP1 DUP2 ISZERO MUL SWAP1 PUSH1 0x40 MLOAD PUSH1 0x0 PUSH1 0x40 MLOAD DUP1 DUP4 SUB DUP2 DUP6 DUP9 DUP9 CALL SWAP4 POP POP POP POP ISZERO DUP1 ISZERO PUSH2 0x64E JUMPI RETURNDATASIZE PUSH1 0x0 DUP1 RETURNDATACOPY RETURNDATASIZE PUSH1 0x0 REVERT JUMPDEST POP JUMPDEST POP POP JUMP JUMPDEST PUSH1 0x60 PUSH1 0x2 DUP1 SLOAD DUP1 PUSH1 0x20 MUL PUSH1 0x20 ADD PUSH1 0x40 MLOAD SWAP1 DUP2 ADD PUSH1 0x40 MSTORE DUP1 SWAP3 SWAP2 SWAP1 DUP2 DUP2 MSTORE PUSH1 0x20 ADD PUSH1 0x0 SWAP1 JUMPDEST DUP3 DUP3 LT ISZERO PUSH2 0x739 JUMPI DUP4 DUP3 SWAP1 PUSH1 0x0 MSTORE PUSH1 0x20 PUSH1 0x0 KECCAK256 SWAP1 PUSH1 0x5 MUL ADD PUSH1 0x40 MLOAD DUP1 PUSH1 0xA0 ADD PUSH1 0x40 MSTORE SWAP1 DUP2 PUSH1 0x0 DUP3 ADD SLOAD DUP2 MSTORE PUSH1 0x20 ADD PUSH1 0x1 DUP3 ADD PUSH1 0x0 SWAP1 SLOAD SWAP1 PUSH2 0x100 EXP SWAP1 DIV PUSH20 0xFFFFFFFFFFFFFFFFFFFFFFFFFFFFFFFFFFFFFFFF AND PUSH20 0xFFFFFFFFFFFFFFFFFFFFFFFFFFFFFFFFFFFFFFFF AND PUSH20 0xFFFFFFFFFFFFFFFFFFFFFFFFFFFFFFFFFFFFFFFF AND DUP2 MSTORE PUSH1 0x20 ADD PUSH1 0x2 DUP3 ADD SLOAD DUP2 MSTORE PUSH1 0x20 ADD PUSH1 0x3 DUP3 ADD PUSH1 0x0 SWAP1 SLOAD SWAP1 PUSH2 0x100 EXP SWAP1 DIV PUSH1 0xFF AND ISZERO ISZERO ISZERO ISZERO DUP2 MSTORE PUSH1 0x20 ADD PUSH1 0x4 DUP3 ADD SLOAD DUP2 MSTORE POP POP DUP2 MSTORE PUSH1 0x20 ADD SWAP1 PUSH1 0x1 ADD SWAP1 PUSH2 0x678 JUMP JUMPDEST POP POP POP POP SWAP1 POP SWAP1 JUMP JUMPDEST PUSH1 0x0 CALLVALUE PUSH1 0x4 PUSH1 0x0 CALLER PUSH20 0xFFFFFFFFFFFFFFFFFFFFFFFFFFFFFFFFFFFFFFFF AND PUSH20 0xFFFFFFFFFFFFFFFFFFFFFFFFFFFFFFFFFFFFFFFF AND DUP2 MSTORE PUSH1 0x20 ADD SWAP1 DUP2 MSTORE PUSH1 0x20 ADD PUSH1 0x0 KECCAK256 PUSH1 0x0 DUP3 DUP3 SLOAD ADD SWAP3 POP POP DUP2 SWAP1 SSTORE POP PUSH32 0xA140956D3B9027A2409B0CFDC01067F3A3FF508999E883E4FFD9E815A47F49C4 CALLVALUE CALLER PUSH1 0x40 MLOAD PUSH2 0x7C2 SWAP3 SWAP2 SWAP1 PUSH2 0xA8E JUMP JUMPDEST PUSH1 0x40 MLOAD DUP1 SWAP2 SUB SWAP1 LOG1 PUSH1 0x4 PUSH1 0x0 CALLER PUSH20 0xFFFFFFFFFFFFFFFFFFFFFFFFFFFFFFFFFFFFFFFF AND PUSH20 0xFFFFFFFFFFFFFFFFFFFFFFFFFFFFFFFFFFFFFFFF AND DUP2 MSTORE PUSH1 0x20 ADD SWAP1 DUP2 MSTORE PUSH1 0x20 ADD PUSH1 0x0 KECCAK256 SLOAD SWAP1 POP SWAP1 JUMP JUMPDEST PUSH1 0x0 DUP2 CALLDATALOAD SWAP1 POP PUSH2 0x81E DUP2 PUSH2 0xB91 JUMP JUMPDEST SWAP3 SWAP2 POP POP JUMP JUMPDEST PUSH1 0x0 DUP2 CALLDATALOAD SWAP1 POP PUSH2 0x833 DUP2 PUSH2 0xBA8 JUMP JUMPDEST SWAP3 SWAP2 POP POP JUMP JUMPDEST PUSH1 0x0 PUSH1 0x20 DUP3 DUP5 SUB SLT ISZERO PUSH2 0x84B JUMPI PUSH1 0x0 DUP1 REVERT JUMPDEST PUSH1 0x0 PUSH2 0x859 DUP5 DUP3 DUP6 ADD PUSH2 0x824 JUMP JUMPDEST SWAP2 POP POP SWAP3 SWAP2 POP POP JUMP JUMPDEST PUSH1 0x0 DUP1 PUSH1 0x40 DUP4 DUP6 SUB SLT ISZERO PUSH2 0x875 JUMPI PUSH1 0x0 DUP1 REVERT JUMPDEST PUSH1 0x0 PUSH2 0x883 DUP6 DUP3 DUP7 ADD PUSH2 0x824 JUMP JUMPDEST SWAP3 POP POP PUSH1 0x20 PUSH2 0x894 DUP6 DUP3 DUP7 ADD PUSH2 0x80F JUMP JUMPDEST SWAP2 POP POP SWAP3 POP SWAP3 SWAP1 POP JUMP JUMPDEST PUSH1 0x0 PUSH2 0x8AA DUP4 DUP4 PUSH2 0x990 JUMP JUMPDEST PUSH1 0xA0 DUP4 ADD SWAP1 POP SWAP3 SWAP2 POP POP JUMP JUMPDEST PUSH2 0x8BF DUP2 PUSH2 0xB5B JUMP JUMPDEST DUP3 MSTORE POP POP JUMP JUMPDEST PUSH2 0x8CE DUP2 PUSH2 0xB13 JUMP JUMPDEST DUP3 MSTORE POP POP JUMP JUMPDEST PUSH2 0x8DD DUP2 PUSH2 0xB01 JUMP JUMPDEST DUP3 MSTORE POP POP JUMP JUMPDEST PUSH1 0x0 PUSH2 0x8EE DUP3 PUSH2 0xAC7 JUMP JUMPDEST PUSH2 0x8F8 DUP2 DUP6 PUSH2 0xADF JUMP JUMPDEST SWAP4 POP PUSH2 0x903 DUP4 PUSH2 0xAB7 JUMP JUMPDEST DUP1 PUSH1 0x0 JUMPDEST DUP4 DUP2 LT ISZERO PUSH2 0x934 JUMPI DUP2 MLOAD PUSH2 0x91B DUP9 DUP3 PUSH2 0x89E JUMP JUMPDEST SWAP8 POP PUSH2 0x926 DUP4 PUSH2 0xAD2 JUMP JUMPDEST SWAP3 POP POP PUSH1 0x1 DUP2 ADD SWAP1 POP PUSH2 0x907 JUMP JUMPDEST POP DUP6 SWAP4 POP POP POP POP SWAP3 SWAP2 POP POP JUMP JUMPDEST PUSH2 0x94A DUP2 PUSH2 0xB25 JUMP JUMPDEST DUP3 MSTORE POP POP JUMP JUMPDEST PUSH1 0x0 PUSH2 0x95D PUSH1 0x12 DUP4 PUSH2 0xAF0 JUMP JUMPDEST SWAP2 POP PUSH32 0x596F7520616C726561647920766F7465642E0000000000000000000000000000 PUSH1 0x0 DUP4 ADD MSTORE PUSH1 0x20 DUP3 ADD SWAP1 POP SWAP2 SWAP1 POP JUMP JUMPDEST PUSH1 0xA0 DUP3 ADD PUSH1 0x0 DUP3 ADD MLOAD PUSH2 0x9A6 PUSH1 0x0 DUP6 ADD DUP3 PUSH2 0x9F8 JUMP JUMPDEST POP PUSH1 0x20 DUP3 ADD MLOAD PUSH2 0x9B9 PUSH1 0x20 DUP6 ADD DUP3 PUSH2 0x8C5 JUMP JUMPDEST POP PUSH1 0x40 DUP3 ADD MLOAD PUSH2 0x9CC PUSH1 0x40 DUP6 ADD DUP3 PUSH2 0x9F8 JUMP JUMPDEST POP PUSH1 0x60 DUP3 ADD MLOAD PUSH2 0x9DF PUSH1 0x60 DUP6 ADD DUP3 PUSH2 0x941 JUMP JUMPDEST POP PUSH1 0x80 DUP3 ADD MLOAD PUSH2 0x9F2 PUSH1 0x80 DUP6 ADD DUP3 PUSH2 0x9F8 JUMP JUMPDEST POP POP POP POP JUMP JUMPDEST PUSH2 0xA01 DUP2 PUSH2 0xB51 JUMP JUMPDEST DUP3 MSTORE POP POP JUMP JUMPDEST PUSH2 0xA10 DUP2 PUSH2 0xB51 JUMP JUMPDEST DUP3 MSTORE POP POP JUMP JUMPDEST PUSH1 0x0 PUSH1 0x20 DUP3 ADD SWAP1 POP PUSH2 0xA2B PUSH1 0x0 DUP4 ADD DUP5 PUSH2 0x8D4 JUMP JUMPDEST SWAP3 SWAP2 POP POP JUMP JUMPDEST PUSH1 0x0 PUSH1 0x20 DUP3 ADD SWAP1 POP DUP2 DUP2 SUB PUSH1 0x0 DUP4 ADD MSTORE PUSH2 0xA4B DUP2 DUP5 PUSH2 0x8E3 JUMP JUMPDEST SWAP1 POP SWAP3 SWAP2 POP POP JUMP JUMPDEST PUSH1 0x0 PUSH1 0x20 DUP3 ADD SWAP1 POP DUP2 DUP2 SUB PUSH1 0x0 DUP4 ADD MSTORE PUSH2 0xA6C DUP2 PUSH2 0x950 JUMP JUMPDEST SWAP1 POP SWAP2 SWAP1 POP JUMP JUMPDEST PUSH1 0x0 PUSH1 0x20 DUP3 ADD SWAP1 POP PUSH2 0xA88 PUSH1 0x0 DUP4 ADD DUP5 PUSH2 0xA07 JUMP JUMPDEST SWAP3 SWAP2 POP POP JUMP JUMPDEST PUSH1 0x0 PUSH1 0x40 DUP3 ADD SWAP1 POP PUSH2 0xAA3 PUSH1 0x0 DUP4 ADD DUP6 PUSH2 0xA07 JUMP JUMPDEST PUSH2 0xAB0 PUSH1 0x20 DUP4 ADD DUP5 PUSH2 0x8B6 JUMP JUMPDEST SWAP4 SWAP3 POP POP POP JUMP JUMPDEST PUSH1 0x0 DUP2 SWAP1 POP PUSH1 0x20 DUP3 ADD SWAP1 POP SWAP2 SWAP1 POP JUMP JUMPDEST PUSH1 0x0 DUP2 MLOAD SWAP1 POP SWAP2 SWAP1 POP JUMP JUMPDEST PUSH1 0x0 PUSH1 0x20 DUP3 ADD SWAP1 POP SWAP2 SWAP1 POP JUMP JUMPDEST PUSH1 0x0 DUP3 DUP3 MSTORE PUSH1 0x20 DUP3 ADD SWAP1 POP SWAP3 SWAP2 POP POP JUMP JUMPDEST PUSH1 0x0 DUP3 DUP3 MSTORE PUSH1 0x20 DUP3 ADD SWAP1 POP SWAP3 SWAP2 POP POP JUMP JUMPDEST PUSH1 0x0 PUSH2 0xB0C DUP3 PUSH2 0xB31 JUMP JUMPDEST SWAP1 POP SWAP2 SWAP1 POP JUMP JUMPDEST PUSH1 0x0 PUSH2 0xB1E DUP3 PUSH2 0xB31 JUMP JUMPDEST SWAP1 POP SWAP2 SWAP1 POP JUMP JUMPDEST PUSH1 0x0 DUP2 ISZERO ISZERO SWAP1 POP SWAP2 SWAP1 POP JUMP JUMPDEST PUSH1 0x0 PUSH20 0xFFFFFFFFFFFFFFFFFFFFFFFFFFFFFFFFFFFFFFFF DUP3 AND SWAP1 POP SWAP2 SWAP1 POP JUMP JUMPDEST PUSH1 0x0 DUP2 SWAP1 POP SWAP2 SWAP1 POP JUMP JUMPDEST PUSH1 0x0 PUSH2 0xB66 DUP3 PUSH2 0xB6D JUMP JUMPDEST SWAP1 POP SWAP2 SWAP1 POP JUMP JUMPDEST PUSH1 0x0 PUSH2 0xB78 DUP3 PUSH2 0xB7F JUMP JUMPDEST SWAP1 POP SWAP2 SWAP1 POP JUMP JUMPDEST PUSH1 0x0 PUSH2 0xB8A DUP3 PUSH2 0xB31 JUMP JUMPDEST SWAP1 POP SWAP2 SWAP1 POP JUMP JUMPDEST PUSH2 0xB9A DUP2 PUSH2 0xB13 JUMP JUMPDEST DUP2 EQ PUSH2 0xBA5 JUMPI PUSH1 0x0 DUP1 REVERT JUMPDEST POP JUMP JUMPDEST PUSH2 0xBB1 DUP2 PUSH2 0xB51 JUMP JUMPDEST DUP2 EQ PUSH2 0xBBC JUMPI PUSH1 0x0 DUP1 REVERT JUMPDEST POP JUMP INVALID LOG2 PUSH5 0x6970667358 0x22 SLT KECCAK256 0xBE DUP6 0x24 0xE 0x25 PUSH17 0x22526E2BCEE315561DBBD9EC6262558ADF SMOD 0xF9 RETURN CALLCODE OR 0xC9 BYTE PUSH1 0xFC PUSH5 0x736F6C6343 STOP SMOD MOD STOP CALLER "
				},
				"gasEstimates": {
					"creation": {
						"codeDepositCost": "612200",
						"executionCost": "infinite",
						"totalCost": "infinite"
					},
					"external": {
						"Deposit()": "infinite",
						"approve(uint256)": "infinite",
						"createTransfer(uint256,address)": "infinite",
						"getBalance()": "339",
						"getTransferRedquest()": "infinite",
						"owners(uint256)": "2334"
					}
				},
				"methodIdentifiers": {
					"Deposit()": "ed21248c",
					"approve(uint256)": "b759f954",
					"createTransfer(uint256,address)": "4c12fa47",
					"getBalance()": "12065fe0",
					"getTransferRedquest()": "eab631f8",
					"owners(uint256)": "025e7c27"
				}
			},
			"storageLayout": {
				"storage": [
					{
						"astId": 5,
						"contract": "contracts/multiSig_Wallet.sol:MultiSig",
						"label": "owners",
						"offset": 0,
						"slot": "0",
						"type": "t_array(t_address)dyn_storage"
					},
					{
						"astId": 7,
						"contract": "contracts/multiSig_Wallet.sol:MultiSig",
						"label": "limit",
						"offset": 0,
						"slot": "1",
						"type": "t_uint256"
					},
					{
						"astId": 77,
						"contract": "contracts/multiSig_Wallet.sol:MultiSig",
						"label": "transferRequest",
						"offset": 0,
						"slot": "2",
						"type": "t_array(t_struct(Transfer)74_storage)dyn_storage"
					},
					{
						"astId": 106,
						"contract": "contracts/multiSig_Wallet.sol:MultiSig",
						"label": "approvals",
						"offset": 0,
						"slot": "3",
						"type": "t_mapping(t_address,t_mapping(t_uint256,t_bool))"
					},
					{
						"astId": 201,
						"contract": "contracts/multiSig_Wallet.sol:MultiSig",
						"label": "balance",
						"offset": 0,
						"slot": "4",
						"type": "t_mapping(t_address,t_uint256)"
					}
				],
				"types": {
					"t_address": {
						"encoding": "inplace",
						"label": "address",
						"numberOfBytes": "20"
					},
					"t_address_payable": {
						"encoding": "inplace",
						"label": "address payable",
						"numberOfBytes": "20"
					},
					"t_array(t_address)dyn_storage": {
						"base": "t_address",
						"encoding": "dynamic_array",
						"label": "address[]",
						"numberOfBytes": "32"
					},
					"t_array(t_struct(Transfer)74_storage)dyn_storage": {
						"base": "t_struct(Transfer)74_storage",
						"encoding": "dynamic_array",
						"label": "struct MultiSig.Transfer[]",
						"numberOfBytes": "32"
					},
					"t_bool": {
						"encoding": "inplace",
						"label": "bool",
						"numberOfBytes": "1"
					},
					"t_mapping(t_address,t_mapping(t_uint256,t_bool))": {
						"encoding": "mapping",
						"key": "t_address",
						"label": "mapping(address => mapping(uint256 => bool))",
						"numberOfBytes": "32",
						"value": "t_mapping(t_uint256,t_bool)"
					},
					"t_mapping(t_address,t_uint256)": {
						"encoding": "mapping",
						"key": "t_address",
						"label": "mapping(address => uint256)",
						"numberOfBytes": "32",
						"value": "t_uint256"
					},
					"t_mapping(t_uint256,t_bool)": {
						"encoding": "mapping",
						"key": "t_uint256",
						"label": "mapping(uint256 => bool)",
						"numberOfBytes": "32",
						"value": "t_bool"
					},
					"t_struct(Transfer)74_storage": {
						"encoding": "inplace",
						"label": "struct MultiSig.Transfer",
						"members": [
							{
								"astId": 65,
								"contract": "contracts/multiSig_Wallet.sol:MultiSig",
								"label": "amount",
								"offset": 0,
								"slot": "0",
								"type": "t_uint256"
							},
							{
								"astId": 67,
								"contract": "contracts/multiSig_Wallet.sol:MultiSig",
								"label": "receiver",
								"offset": 0,
								"slot": "1",
								"type": "t_address_payable"
							},
							{
								"astId": 69,
								"contract": "contracts/multiSig_Wallet.sol:MultiSig",
								"label": "approvals",
								"offset": 0,
								"slot": "2",
								"type": "t_uint256"
							},
							{
								"astId": 71,
								"contract": "contracts/multiSig_Wallet.sol:MultiSig",
								"label": "hasBeensend",
								"offset": 0,
								"slot": "3",
								"type": "t_bool"
							},
							{
								"astId": 73,
								"contract": "contracts/multiSig_Wallet.sol:MultiSig",
								"label": "id",
								"offset": 0,
								"slot": "4",
								"type": "t_uint256"
							}
						],
						"numberOfBytes": "160"
					},
					"t_uint256": {
						"encoding": "inplace",
						"label": "uint256",
						"numberOfBytes": "32"
					}
				}
			},
			"userdoc": {
				"kind": "user",
				"methods": {},
				"version": 1
			}
		}
	}
}